{
  "contractName": "AdExCore",
  "abi": [
    {
      "constant": true,
      "inputs": [
        {
          "name": "",
          "type": "bytes32"
        }
      ],
      "name": "withdrawn",
      "outputs": [
        {
          "name": "",
          "type": "uint256"
        }
      ],
      "payable": false,
      "stateMutability": "view",
      "type": "function"
    },
    {
      "constant": true,
      "inputs": [
        {
          "name": "",
          "type": "bytes32"
        },
        {
          "name": "",
          "type": "address"
        }
      ],
      "name": "withdrawnPerUser",
      "outputs": [
        {
          "name": "",
          "type": "uint256"
        }
      ],
      "payable": false,
      "stateMutability": "view",
      "type": "function"
    },
    {
      "constant": true,
      "inputs": [
        {
          "name": "",
          "type": "bytes32"
        }
      ],
      "name": "states",
      "outputs": [
        {
          "name": "",
          "type": "uint8"
        }
      ],
      "payable": false,
      "stateMutability": "view",
      "type": "function"
    },
    {
      "anonymous": false,
      "inputs": [
        {
          "indexed": true,
          "name": "channelId",
          "type": "bytes32"
        }
      ],
      "name": "LogChannelOpen",
      "type": "event"
    },
    {
      "anonymous": false,
      "inputs": [
        {
          "indexed": true,
          "name": "channelId",
          "type": "bytes32"
        },
        {
          "indexed": false,
          "name": "amount",
          "type": "uint256"
        }
      ],
      "name": "LogChannelWithdrawExpired",
      "type": "event"
    },
    {
      "anonymous": false,
      "inputs": [
        {
          "indexed": true,
          "name": "channelId",
          "type": "bytes32"
        },
        {
          "indexed": false,
          "name": "amount",
          "type": "uint256"
        }
      ],
      "name": "LogChannelWithdraw",
      "type": "event"
    },
    {
      "constant": false,
      "inputs": [
        {
          "components": [
            {
              "name": "creator",
              "type": "address"
            },
            {
              "name": "tokenAddr",
              "type": "address"
            },
            {
              "name": "tokenAmount",
              "type": "uint256"
            },
            {
              "name": "validUntil",
              "type": "uint256"
            },
            {
              "name": "validators",
              "type": "address[]"
            },
            {
              "name": "spec",
              "type": "bytes32"
            }
          ],
          "name": "channel",
          "type": "tuple"
        }
      ],
      "name": "channelOpen",
      "outputs": [],
      "payable": false,
      "stateMutability": "nonpayable",
      "type": "function"
    },
    {
      "constant": false,
      "inputs": [
        {
          "components": [
            {
              "name": "creator",
              "type": "address"
            },
            {
              "name": "tokenAddr",
              "type": "address"
            },
            {
              "name": "tokenAmount",
              "type": "uint256"
            },
            {
              "name": "validUntil",
              "type": "uint256"
            },
            {
              "name": "validators",
              "type": "address[]"
            },
            {
              "name": "spec",
              "type": "bytes32"
            }
          ],
          "name": "channel",
          "type": "tuple"
        }
      ],
      "name": "channelWithdrawExpired",
      "outputs": [],
      "payable": false,
      "stateMutability": "nonpayable",
      "type": "function"
    },
    {
      "constant": false,
      "inputs": [
        {
          "components": [
            {
              "name": "creator",
              "type": "address"
            },
            {
              "name": "tokenAddr",
              "type": "address"
            },
            {
              "name": "tokenAmount",
              "type": "uint256"
            },
            {
              "name": "validUntil",
              "type": "uint256"
            },
            {
              "name": "validators",
              "type": "address[]"
            },
            {
              "name": "spec",
              "type": "bytes32"
            }
          ],
          "name": "channel",
          "type": "tuple"
        },
        {
          "name": "stateRoot",
          "type": "bytes32"
        },
        {
          "name": "signatures",
          "type": "bytes32[3][]"
        },
        {
          "name": "proof",
          "type": "bytes32[]"
        },
        {
          "name": "amountInTree",
          "type": "uint256"
        }
      ],
      "name": "channelWithdraw",
      "outputs": [],
      "payable": false,
      "stateMutability": "nonpayable",
      "type": "function"
    }
  ],
  "bytecode": "0x608060405234801561001057600080fd5b50611b65806100206000396000f3fe608060405234801561001057600080fd5b506004361061007f576000357c0100000000000000000000000000000000000000000000000000000000900480633823d66c14610084578063553721c5146100b45780637e881aab146100e4578063ed66d85714610100578063ef3600be1461011c578063fbdc1ef114610138575b600080fd5b61009e6004803603610099919081019061130f565b610168565b6040516100ab9190611915565b60405180910390f35b6100ce60048036036100c99190810190611338565b610180565b6040516100db9190611915565b60405180910390f35b6100fe60048036036100f99190810190611374565b6101a5565b005b61011a600480360361011591908101906113b5565b61036d565b005b61013660048036036101319190810190611374565b6106e0565b005b610152600480360361014d919081019061130f565b6108d1565b60405161015f91906117fa565b60405180910390f35b60016020528060005260406000206000915090505481565b6002602052816000526040600020602052806000526040600020600091509150505481565b60006101b0826108f1565b9050600060028111156101bf57fe5b60008083815260200190815260200160002060009054906101000a900460ff1660028111156101ea57fe5b14151561022c576040517f08c379a000000000000000000000000000000000000000000000000000000000815260040161022390611815565b60405180910390fd5b816000015173ffffffffffffffffffffffffffffffffffffffff163373ffffffffffffffffffffffffffffffffffffffff161415156102a0576040517f08c379a0000000000000000000000000000000000000000000000000000000008152600401610297906118b5565b60405180910390fd5b6102b3428361094590919063ffffffff16565b15156102f4576040517f08c379a00000000000000000000000000000000000000000000000000000000081526004016102eb90611875565b60405180910390fd5b600160008083815260200190815260200160002060006101000a81548160ff0219169083600281111561032357fe5b021790555061033c8260200151333085604001516109b0565b807f13c5d35090070a7e2a5e8eaab30efb0db4dd2a622fc0e1ed61960bbff1580ef360405160405180910390a25050565b6000610378866108f1565b90506001600281111561038757fe5b60008083815260200190815260200160002060009054906101000a900460ff1660028111156103b257fe5b1415156103f4576040517f08c379a00000000000000000000000000000000000000000000000000000000081526004016103eb90611815565b60405180910390fd5b8560600151421115151561043d576040517f08c379a0000000000000000000000000000000000000000000000000000000008152600401610434906118d5565b60405180910390fd5b600081866040516020016104529291906117d1565b60405160208183030381529060405280519060200120905061047f818689610a549092919063ffffffff16565b15156104c0576040517f08c379a00000000000000000000000000000000000000000000000000000000081526004016104b790611835565b60405180910390fd5b600033846040516020016104d59291906116d2565b6040516020818303038152906040528051906020012090506104f8818689610af5565b1515610539576040517f08c379a0000000000000000000000000000000000000000000000000000000008152600401610530906118f5565b60405180910390fd5b600061059e6002600086815260200190815260200160002060003373ffffffffffffffffffffffffffffffffffffffff1673ffffffffffffffffffffffffffffffffffffffff1681526020019081526020016000205486610bda90919063ffffffff16565b9050846002600086815260200190815260200160002060003373ffffffffffffffffffffffffffffffffffffffff1673ffffffffffffffffffffffffffffffffffffffff1681526020019081526020016000208190555061061b816001600087815260200190815260200160002054610bf390919063ffffffff16565b6001600086815260200190815260200160002081905550886040015160016000868152602001908152602001600020541115151561068e576040517f08c379a000000000000000000000000000000000000000000000000000000000815260040161068590611895565b60405180910390fd5b61069d89602001513383610c11565b837fa37d093ea5991ef0b49761069825328a6eb46d0a2a274b55d08fd17ff16d3ec3826040516106cd9190611915565b60405180910390a2505050505050505050565b60006106eb826108f1565b9050600160028111156106fa57fe5b60008083815260200190815260200160002060009054906101000a900460ff16600281111561072557fe5b141515610767576040517f08c379a000000000000000000000000000000000000000000000000000000000815260040161075e90611815565b60405180910390fd5b8160600151421115156107af576040517f08c379a00000000000000000000000000000000000000000000000000000000081526004016107a690611855565b60405180910390fd5b816000015173ffffffffffffffffffffffffffffffffffffffff163373ffffffffffffffffffffffffffffffffffffffff16141515610823576040517f08c379a000000000000000000000000000000000000000000000000000000000815260040161081a906118b5565b60405180910390fd5b600061084f60016000848152602001908152602001600020548460400151610bda90919063ffffffff16565b9050600260008084815260200190815260200160002060006101000a81548160ff0219169083600281111561088057fe5b021790555061089483602001513383610c11565b817f220fe94f8612c2099cdde52d125687c1f3ac71f882c139f664e5c99e405795d2826040516108c49190611915565b60405180910390a2505050565b60006020528060005260406000206000915054906101000a900460ff1681565b600030826000015183602001518460400151856060015186608001518760a0015160405160200161092897969594939291906116fb565b604051602081830303815290604052805190602001209050919050565b60006002836080015151101561095e57600090506109aa565b6019836080015151111561097557600090506109aa565b818360600151101561098a57600090506109aa565b6301e133808201836060015111156109a557600090506109aa565b600190505b92915050565b8373ffffffffffffffffffffffffffffffffffffffff166323b872dd8484846040518463ffffffff167c0100000000000000000000000000000000000000000000000000000000028152600401610a0993929190611771565b600060405180830381600087803b158015610a2357600080fd5b505af1158015610a37573d6000803e3d6000fd5b50505050610a43610cb2565b1515610a4e57600080fd5b50505050565b60008360800151518251141515610a6e5760009050610aee565b600080905060008090505b8351811015610ada57610abf85876080015183815181101515610a9857fe5b906020019060200201518684815181101515610ab057fe5b90602001906020020151610cf0565b15610acd5781806001019250505b8080600101915050610a79565b506002856080015151026003820210159150505b9392505050565b60008084905060008090505b8451811015610bcc578481815181101515610b1857fe5b90602001906020020151821015610b7657818582815181101515610b3857fe5b906020019060200201516040516020018083815260200182815260200192505050604051602081830303815290604052805190602001209150610bbf565b8481815181101515610b8457fe5b906020019060200201518260405160200180838152602001828152602001925050506040516020818303038152906040528051906020012091505b8080600101915050610b01565b508281149150509392505050565b6000828211151515610be857fe5b818303905092915050565b6000808284019050838110151515610c0757fe5b8091505092915050565b8273ffffffffffffffffffffffffffffffffffffffff1663a9059cbb83836040518363ffffffff167c0100000000000000000000000000000000000000000000000000000000028152600401610c689291906117a8565b600060405180830381600087803b158015610c8257600080fd5b505af1158015610c96573d6000803e3d6000fd5b50505050610ca2610cb2565b1515610cad57600080fd5b505050565b600080600090503d60008114610ccf5760208114610cd857610ce4565b60019150610ce4565b60206000803e60005191505b50600081141591505090565b60008273ffffffffffffffffffffffffffffffffffffffff16610d138584610d33565b73ffffffffffffffffffffffffffffffffffffffff161490509392505050565b600080826000600381101515610d4557fe5b60200201516000602081101515610d5857fe5b1a7f0100000000000000000000000000000000000000000000000000000000000000027f0100000000000000000000000000000000000000000000000000000000000000900460ff166004811115610dac57fe5b905060006004811115610dbb57fe5b816004811115610dc757fe5b1415610dd7576000915050611014565b6000836000600381101515610de857fe5b60200201516001602081101515610dfb57fe5b1a7f0100000000000000000000000000000000000000000000000000000000000000027f01000000000000000000000000000000000000000000000000000000000000009004905060026004811115610e5057fe5b826004811115610e5c57fe5b1415610eb8578460405160200180807f19457468657265756d205369676e6564204d6573736167653a0a333200000000815250601c01828152602001915050604051602081830303815290604052805190602001209450610f82565b60036004811115610ec557fe5b826004811115610ed157fe5b1415610f2d578460405160200180807f19457468657265756d205369676e6564204d6573736167653a0a200000000000815250601b01828152602001915050604051602081830303815290604052805190602001209450610f81565b600480811115610f3957fe5b826004811115610f4557fe5b1415610f8057846040516020018080611ac3606991396069018281526020019150506040516020818303038152906040528051906020012094505b5b5b60018582866001600381101515610f9557fe5b6020020151876002600381101515610fa957fe5b602002015160405160008152602001604052604051808581526020018460ff1660ff1681526020018381526020018281526020019450505050506020604051602081039080840390855afa158015611005573d6000803e3d6000fd5b50505060206040510351925050505b92915050565b60006110268235611a8a565b905092915050565b600082601f830112151561104157600080fd5b813561105461104f8261195d565b611930565b9150818183526020840193506020810190508385602084028201111561107957600080fd5b60005b838110156110a9578161108f888261101a565b84526020840193506020830192505060018101905061107c565b5050505092915050565b600082601f83011215156110c657600080fd5b81356110d96110d482611985565b611930565b915081818352602084019350602081019050838560608402820111156110fe57600080fd5b60005b8381101561112e57816111148882611138565b845260208401935060608301925050600181019050611101565b5050505092915050565b600082601f830112151561114b57600080fd5b600361115e611159826119ad565b611930565b9150818385602084028201111561117457600080fd5b60005b838110156111a4578161118a8882611233565b845260208401935060208301925050600181019050611177565b5050505092915050565b600082601f83011215156111c157600080fd5b81356111d46111cf826119cf565b611930565b915081818352602084019350602081019050838560208402820111156111f957600080fd5b60005b83811015611229578161120f8882611233565b8452602084019350602083019250506001810190506111fc565b5050505092915050565b600061123f8235611a9c565b905092915050565b600060c0828403121561125957600080fd5b61126360c0611930565b905060006112738482850161101a565b60008301525060206112878482850161101a565b602083015250604061129b848285016112fb565b60408301525060606112af848285016112fb565b606083015250608082013567ffffffffffffffff8111156112cf57600080fd5b6112db8482850161102e565b60808301525060a06112ef84828501611233565b60a08301525092915050565b60006113078235611aa6565b905092915050565b60006020828403121561132157600080fd5b600061132f84828501611233565b91505092915050565b6000806040838503121561134b57600080fd5b600061135985828601611233565b925050602061136a8582860161101a565b9150509250929050565b60006020828403121561138657600080fd5b600082013567ffffffffffffffff8111156113a057600080fd5b6113ac84828501611247565b91505092915050565b600080600080600060a086880312156113cd57600080fd5b600086013567ffffffffffffffff8111156113e757600080fd5b6113f388828901611247565b955050602061140488828901611233565b945050604086013567ffffffffffffffff81111561142157600080fd5b61142d888289016110b3565b935050606086013567ffffffffffffffff81111561144a57600080fd5b611456888289016111ae565b9250506080611467888289016112fb565b9150509295509295909350565b61147d81611a2e565b82525050565b61148c81611a1c565b82525050565b600061149d82611a04565b8084526020840193506114af836119f7565b60005b828110156114e1576114c5868351611483565b6114ce82611a0f565b91506020860195506001810190506114b2565b50849250505092915050565b6114f681611a40565b82525050565b61150581611ab0565b82525050565b6000600d82527f494e56414c49445f5354415445000000000000000000000000000000000000006020830152604082019050919050565b6000601882527f4e4f545f5349474e45445f42595f56414c494441544f525300000000000000006020830152604082019050919050565b6000600b82527f4e4f545f455850495245440000000000000000000000000000000000000000006020830152604082019050919050565b6000600f82527f494e56414c49445f4348414e4e454c00000000000000000000000000000000006020830152604082019050919050565b6000601d82527f5749544844524157494e475f4d4f52455f5448414e5f4348414e4e454c0000006020830152604082019050919050565b6000600f82527f494e56414c49445f43524541544f5200000000000000000000000000000000006020830152604082019050919050565b6000600782527f45585049524544000000000000000000000000000000000000000000000000006020830152604082019050919050565b6000601582527f42414c414e43454c4541465f4e4f545f464f554e4400000000000000000000006020830152604082019050919050565b6116cc81611a80565b82525050565b60006040820190506116e76000830185611474565b6116f460208301846116c3565b9392505050565b600060e082019050611710600083018a611483565b61171d6020830189611483565b61172a6040830188611483565b61173760608301876116c3565b61174460808301866116c3565b81810360a08301526117568185611492565b905061176560c08301846114ed565b98975050505050505050565b60006060820190506117866000830186611483565b6117936020830185611483565b6117a060408301846116c3565b949350505050565b60006040820190506117bd6000830185611483565b6117ca60208301846116c3565b9392505050565b60006040820190506117e660008301856114ed565b6117f360208301846114ed565b9392505050565b600060208201905061180f60008301846114fc565b92915050565b6000602082019050818103600083015261182e8161150b565b9050919050565b6000602082019050818103600083015261184e81611542565b9050919050565b6000602082019050818103600083015261186e81611579565b9050919050565b6000602082019050818103600083015261188e816115b0565b9050919050565b600060208201905081810360008301526118ae816115e7565b9050919050565b600060208201905081810360008301526118ce8161161e565b9050919050565b600060208201905081810360008301526118ee81611655565b9050919050565b6000602082019050818103600083015261190e8161168c565b9050919050565b600060208201905061192a60008301846116c3565b92915050565b6000604051905081810181811067ffffffffffffffff8211171561195357600080fd5b8060405250919050565b600067ffffffffffffffff82111561197457600080fd5b602082029050602081019050919050565b600067ffffffffffffffff82111561199c57600080fd5b602082029050602081019050919050565b600067ffffffffffffffff8211156119c457600080fd5b602082029050919050565b600067ffffffffffffffff8211156119e657600080fd5b602082029050602081019050919050565b6000602082019050919050565b600081519050919050565b6000602082019050919050565b6000611a2782611a60565b9050919050565b6000611a3982611a60565b9050919050565b6000819050919050565b6000600382101515611a5857fe5b819050919050565b600073ffffffffffffffffffffffffffffffffffffffff82169050919050565b6000819050919050565b6000611a9582611a60565b9050919050565b6000819050919050565b6000819050919050565b6000611abb82611a4a565b905091905056fe19457468657265756d205369676e6564204d6573736167653a0a3130384279207369676e696e672074686973206d6573736167652c20796f752061636b6e6f776c65646765207369676e696e6720616e20416445782062696420776974682074686520686173683a0aa265627a7a72305820d044d0b0bb5f29ebd35fa90664ac11a7fe47a5a630af33a72cf096e73064bbe56c6578706572696d656e74616cf50037",
  "source": "pragma solidity ^0.5.2;\npragma experimental ABIEncoderV2;\n\nimport \"./libs/SafeMath.sol\";\nimport \"./libs/SafeERC20.sol\";\nimport \"./libs/MerkleProof.sol\";\nimport \"./libs/ChannelLibrary.sol\";\n\n// AUDIT: Things we should look for\n// 1) every time we check the state, the function should either revert or change the state\n// 2) state transition: channelOpen locks up tokens, then all of the tokens can be withdrawn on channelExpiredWithdraw, except how many were withdrawn using channelWithdraw\n// 3) external calls (everything using SafeERC20) should be at the end\n// 4) channel can always be 100% drained with Withdraw/ExpiredWithdraw\n\ncontract AdExCore {\n\tusing SafeMath for uint;\n\tusing ChannelLibrary for ChannelLibrary.Channel;\n\n \t// channelId => channelState\n\tmapping (bytes32 => ChannelLibrary.State) public states;\n\t\n\t// withdrawn per channel (channelId => uint)\n\tmapping (bytes32 => uint) public withdrawn;\n\t// withdrawn per channel user (channelId => (account => uint))\n\tmapping (bytes32 => mapping (address => uint)) public withdrawnPerUser;\n\n\t// Events\n\tevent LogChannelOpen(bytes32 indexed channelId);\n\tevent LogChannelWithdrawExpired(bytes32 indexed channelId, uint amount);\n\tevent LogChannelWithdraw(bytes32 indexed channelId, uint amount);\n\n\t// All functions are public\n\tfunction channelOpen(ChannelLibrary.Channel memory channel)\n\t\tpublic\n\t{\n\t\tbytes32 channelId = channel.hash();\n\t\trequire(states[channelId] == ChannelLibrary.State.Unknown, \"INVALID_STATE\");\n\t\trequire(msg.sender == channel.creator, \"INVALID_CREATOR\");\n\t\trequire(channel.isValid(now), \"INVALID_CHANNEL\");\n\t\t\n\t\tstates[channelId] = ChannelLibrary.State.Active;\n\n\t\tSafeERC20.transferFrom(channel.tokenAddr, msg.sender, address(this), channel.tokenAmount);\n\n\t\temit LogChannelOpen(channelId);\n\t}\n\n\tfunction channelWithdrawExpired(ChannelLibrary.Channel memory channel)\n\t\tpublic\n\t{\n\t\tbytes32 channelId = channel.hash();\n\t\trequire(states[channelId] == ChannelLibrary.State.Active, \"INVALID_STATE\");\n\t\trequire(now > channel.validUntil, \"NOT_EXPIRED\");\n\t\trequire(msg.sender == channel.creator, \"INVALID_CREATOR\");\n\t\t\n\t\tuint toWithdraw = channel.tokenAmount.sub(withdrawn[channelId]);\n\n\t\t// NOTE: we will not update withdrawn, since a WithdrawExpired does not count towards normal withdrawals\n\t\tstates[channelId] = ChannelLibrary.State.Expired;\n\t\t\n\t\tSafeERC20.transfer(channel.tokenAddr, msg.sender, toWithdraw);\n\n\t\temit LogChannelWithdrawExpired(channelId, toWithdraw);\n\t}\n\n\tfunction channelWithdraw(ChannelLibrary.Channel memory channel, bytes32 stateRoot, bytes32[3][] memory signatures, bytes32[] memory proof, uint amountInTree)\n\t\tpublic\n\t{\n\t\tbytes32 channelId = channel.hash();\n\t\trequire(states[channelId] == ChannelLibrary.State.Active, \"INVALID_STATE\");\n\t\trequire(now <= channel.validUntil, \"EXPIRED\");\n\n\t\tbytes32 hashToSign = keccak256(abi.encode(channelId, stateRoot));\n\t\trequire(channel.isSignedBySupermajority(hashToSign, signatures), \"NOT_SIGNED_BY_VALIDATORS\");\n\n\t\tbytes32 balanceLeaf = keccak256(abi.encode(msg.sender, amountInTree));\n\t\trequire(MerkleProof.isContained(balanceLeaf, proof, stateRoot), \"BALANCELEAF_NOT_FOUND\");\n\n\t\t// The user can withdraw their constantly increasing balance at any time (essentially prevent users from double spending)\n\t\tuint toWithdraw = amountInTree.sub(withdrawnPerUser[channelId][msg.sender]);\n\t\twithdrawnPerUser[channelId][msg.sender] = amountInTree;\n\n\t\t// Ensure that it's not possible to withdraw more than the channel deposit (e.g. malicious validators sign such a state)\n\t\twithdrawn[channelId] = withdrawn[channelId].add(toWithdraw);\n\t\trequire(withdrawn[channelId] <= channel.tokenAmount, \"WITHDRAWING_MORE_THAN_CHANNEL\");\n\n\t\tSafeERC20.transfer(channel.tokenAddr, msg.sender, toWithdraw);\n\n\t\temit LogChannelWithdraw(channelId, toWithdraw);\n\t}\n}\n",
  "sourcePath": "/home/paunov/git/adex-protocol-eth/contracts/AdExCore.sol",
  "compiler": {
    "name": "solc",
    "version": "0.5.2+commit.1df8f40c.Emscripten.clang"
  },
  "schemaVersion": "3.0.1",
  "updatedAt": "2019-01-04T14:04:06.246Z",
  "devdoc": {
    "methods": {}
  },
  "userdoc": {
    "methods": {}
  }
}