{
  "contractName": "AdExCore",
  "abi": [
    {
      "constant": true,
      "inputs": [
        {
          "name": "",
          "type": "bytes32"
        }
      ],
      "name": "withdrawn",
      "outputs": [
        {
          "name": "",
          "type": "uint256"
        }
      ],
      "payable": false,
      "stateMutability": "view",
      "type": "function"
    },
    {
      "constant": true,
      "inputs": [
        {
          "name": "",
          "type": "bytes32"
        },
        {
          "name": "",
          "type": "address"
        }
      ],
      "name": "withdrawnPerUser",
      "outputs": [
        {
          "name": "",
          "type": "uint256"
        }
      ],
      "payable": false,
      "stateMutability": "view",
      "type": "function"
    },
    {
      "constant": true,
      "inputs": [
        {
          "name": "",
          "type": "bytes32"
        }
      ],
      "name": "states",
      "outputs": [
        {
          "name": "",
          "type": "uint8"
        }
      ],
      "payable": false,
      "stateMutability": "view",
      "type": "function"
    },
    {
      "anonymous": false,
      "inputs": [
        {
          "indexed": true,
          "name": "channelId",
          "type": "bytes32"
        }
      ],
      "name": "LogChannelOpen",
      "type": "event"
    },
    {
      "anonymous": false,
      "inputs": [
        {
          "indexed": true,
          "name": "channelId",
          "type": "bytes32"
        },
        {
          "indexed": false,
          "name": "amount",
          "type": "uint256"
        }
      ],
      "name": "LogChannelWithdrawExpired",
      "type": "event"
    },
    {
      "anonymous": false,
      "inputs": [
        {
          "indexed": true,
          "name": "channelId",
          "type": "bytes32"
        },
        {
          "indexed": false,
          "name": "amount",
          "type": "uint256"
        }
      ],
      "name": "LogChannelWithdraw",
      "type": "event"
    },
    {
      "constant": false,
      "inputs": [
        {
          "components": [
            {
              "name": "creator",
              "type": "address"
            },
            {
              "name": "tokenAddr",
              "type": "address"
            },
            {
              "name": "tokenAmount",
              "type": "uint256"
            },
            {
              "name": "validUntil",
              "type": "uint256"
            },
            {
              "name": "validators",
              "type": "address[]"
            },
            {
              "name": "spec",
              "type": "bytes32"
            }
          ],
          "name": "channel",
          "type": "tuple"
        }
      ],
      "name": "channelOpen",
      "outputs": [],
      "payable": false,
      "stateMutability": "nonpayable",
      "type": "function"
    },
    {
      "constant": false,
      "inputs": [
        {
          "components": [
            {
              "name": "creator",
              "type": "address"
            },
            {
              "name": "tokenAddr",
              "type": "address"
            },
            {
              "name": "tokenAmount",
              "type": "uint256"
            },
            {
              "name": "validUntil",
              "type": "uint256"
            },
            {
              "name": "validators",
              "type": "address[]"
            },
            {
              "name": "spec",
              "type": "bytes32"
            }
          ],
          "name": "channel",
          "type": "tuple"
        }
      ],
      "name": "channelWithdrawExpired",
      "outputs": [],
      "payable": false,
      "stateMutability": "nonpayable",
      "type": "function"
    },
    {
      "constant": false,
      "inputs": [
        {
          "components": [
            {
              "name": "creator",
              "type": "address"
            },
            {
              "name": "tokenAddr",
              "type": "address"
            },
            {
              "name": "tokenAmount",
              "type": "uint256"
            },
            {
              "name": "validUntil",
              "type": "uint256"
            },
            {
              "name": "validators",
              "type": "address[]"
            },
            {
              "name": "spec",
              "type": "bytes32"
            }
          ],
          "name": "channel",
          "type": "tuple"
        },
        {
          "name": "stateRoot",
          "type": "bytes32"
        },
        {
          "name": "signatures",
          "type": "bytes32[3][]"
        },
        {
          "name": "proof",
          "type": "bytes32[]"
        },
        {
          "name": "amountInTree",
          "type": "uint256"
        }
      ],
      "name": "channelWithdraw",
      "outputs": [],
      "payable": false,
      "stateMutability": "nonpayable",
      "type": "function"
    }
  ],
  "bytecode": "0x608060405234801561001057600080fd5b50611d40806100206000396000f3fe608060405234801561001057600080fd5b506004361061007f576000357c0100000000000000000000000000000000000000000000000000000000900480633823d66c14610084578063553721c5146100b45780637e881aab146100e4578063ed66d85714610100578063ef3600be1461011c578063fbdc1ef114610138575b600080fd5b61009e60048036036100999190810190611248565b610168565b6040516100ab9190611af7565b60405180910390f35b6100ce60048036036100c99190810190611271565b610180565b6040516100db9190611af7565b60405180910390f35b6100fe60048036036100f991908101906112ad565b6101a5565b005b61011a600480360361011591908101906112ee565b610367565b005b610136600480360361013191908101906112ad565b6106d0565b005b610152600480360361014d9190810190611248565b6108bb565b60405161015f91906119dc565b60405180910390f35b60016020528060005260406000206000915090505481565b6002602052816000526040600020602052806000526040600020600091509150505481565b60006101b0826108db565b9050600060028111156101bf57fe5b60008083815260200190815260200160002060009054906101000a900460ff1660028111156101ea57fe5b1461022a576040517f08c379a0000000000000000000000000000000000000000000000000000000008152600401610221906119f7565b60405180910390fd5b816000015173ffffffffffffffffffffffffffffffffffffffff163373ffffffffffffffffffffffffffffffffffffffff161461029c576040517f08c379a000000000000000000000000000000000000000000000000000000000815260040161029390611a97565b60405180910390fd5b6102af428361092f90919063ffffffff16565b6102ee576040517f08c379a00000000000000000000000000000000000000000000000000000000081526004016102e590611a57565b60405180910390fd5b600160008083815260200190815260200160002060006101000a81548160ff0219169083600281111561031d57fe5b021790555061033682602001513330856040015161099a565b807f13c5d35090070a7e2a5e8eaab30efb0db4dd2a622fc0e1ed61960bbff1580ef360405160405180910390a25050565b6000610372866108db565b90506001600281111561038157fe5b60008083815260200190815260200160002060009054906101000a900460ff1660028111156103ac57fe5b146103ec576040517f08c379a00000000000000000000000000000000000000000000000000000000081526004016103e3906119f7565b60405180910390fd5b8560600151421115610433576040517f08c379a000000000000000000000000000000000000000000000000000000000815260040161042a90611ab7565b60405180910390fd5b6000818660405160200161044892919061196e565b604051602081830303815290604052805190602001209050610475818689610a3c9092919063ffffffff16565b6104b4576040517f08c379a00000000000000000000000000000000000000000000000000000000081526004016104ab90611a17565b60405180910390fd5b600033846040516020016104c992919061186f565b6040516020818303038152906040528051906020012090506104ec818689610ad3565b61052b576040517f08c379a000000000000000000000000000000000000000000000000000000000815260040161052290611ad7565b60405180910390fd5b60006105906002600086815260200190815260200160002060003373ffffffffffffffffffffffffffffffffffffffff1673ffffffffffffffffffffffffffffffffffffffff1681526020019081526020016000205486610ba090919063ffffffff16565b9050846002600086815260200190815260200160002060003373ffffffffffffffffffffffffffffffffffffffff1673ffffffffffffffffffffffffffffffffffffffff1681526020019081526020016000208190555061060d816001600087815260200190815260200160002054610bb790919063ffffffff16565b600160008681526020019081526020016000208190555088604001516001600086815260200190815260200160002054111561067e576040517f08c379a000000000000000000000000000000000000000000000000000000000815260040161067590611a77565b60405180910390fd5b61068d89602001513383610bd3565b837fa37d093ea5991ef0b49761069825328a6eb46d0a2a274b55d08fd17ff16d3ec3826040516106bd9190611af7565b60405180910390a2505050505050505050565b60006106db826108db565b9050600160028111156106ea57fe5b60008083815260200190815260200160002060009054906101000a900460ff16600281111561071557fe5b14610755576040517f08c379a000000000000000000000000000000000000000000000000000000000815260040161074c906119f7565b60405180910390fd5b8160600151421161079b576040517f08c379a000000000000000000000000000000000000000000000000000000000815260040161079290611a37565b60405180910390fd5b816000015173ffffffffffffffffffffffffffffffffffffffff163373ffffffffffffffffffffffffffffffffffffffff161461080d576040517f08c379a000000000000000000000000000000000000000000000000000000000815260040161080490611a97565b60405180910390fd5b600061083960016000848152602001908152602001600020548460400151610ba090919063ffffffff16565b9050600260008084815260200190815260200160002060006101000a81548160ff0219169083600281111561086a57fe5b021790555061087e83602001513383610bd3565b817f220fe94f8612c2099cdde52d125687c1f3ac71f882c139f664e5c99e405795d2826040516108ae9190611af7565b60405180910390a2505050565b60006020528060005260406000206000915054906101000a900460ff1681565b600030826000015183602001518460400151856060015186608001518760a001516040516020016109129796959493929190611898565b604051602081830303815290604052805190602001209050919050565b6000600283608001515110156109485760009050610994565b6019836080015151111561095f5760009050610994565b81836060015110156109745760009050610994565b6301e1338082018360600151111561098f5760009050610994565b600190505b92915050565b8373ffffffffffffffffffffffffffffffffffffffff166323b872dd8484846040518463ffffffff167c01000000000000000000000000000000000000000000000000000000000281526004016109f39392919061190e565b600060405180830381600087803b158015610a0d57600080fd5b505af1158015610a21573d6000803e3d6000fd5b50505050610a2d610c72565b610a3657600080fd5b50505050565b6000836080015151825114610a545760009050610acc565b600080905060008090505b8351811015610ab857610a9d8587608001518381518110610a7c57fe5b6020026020010151868481518110610a9057fe5b6020026020010151610cb0565b15610aab5781806001019250505b8080600101915050610a5f565b506002856080015151026003820210159150505b9392505050565b60008084905060008090505b8451811015610b9257848181518110610af457fe5b6020026020010151821015610b465781858281518110610b1057fe5b6020026020010151604051602001610b299291906117d1565b604051602081830303815290604052805190602001209150610b85565b848181518110610b5257fe5b602002602001015182604051602001610b6c9291906117d1565b6040516020818303038152906040528051906020012091505b8080600101915050610adf565b508281149150509392505050565b600082821115610bac57fe5b818303905092915050565b600080828401905083811015610bc957fe5b8091505092915050565b8273ffffffffffffffffffffffffffffffffffffffff1663a9059cbb83836040518363ffffffff167c0100000000000000000000000000000000000000000000000000000000028152600401610c2a929190611945565b600060405180830381600087803b158015610c4457600080fd5b505af1158015610c58573d6000803e3d6000fd5b50505050610c64610c72565b610c6d57600080fd5b505050565b600080600090503d60008114610c8f5760208114610c9857610ca4565b60019150610ca4565b60206000803e60005191505b50600081141591505090565b60008273ffffffffffffffffffffffffffffffffffffffff16610cd38584610cf3565b73ffffffffffffffffffffffffffffffffffffffff161490509392505050565b60008082600060038110610d0357fe5b6020020151600060208110610d1457fe5b1a7f0100000000000000000000000000000000000000000000000000000000000000027f0100000000000000000000000000000000000000000000000000000000000000900460ff166004811115610d6857fe5b905060006004811115610d7757fe5b816004811115610d8357fe5b1415610d93576000915050610f55565b600083600060038110610da257fe5b6020020151600160208110610db357fe5b1a7f0100000000000000000000000000000000000000000000000000000000000000027f01000000000000000000000000000000000000000000000000000000000000009004905060026004811115610e0857fe5b826004811115610e1457fe5b1415610e485784604051602001610e2b91906117fd565b604051602081830303815290604052805190602001209450610edf565b60036004811115610e5557fe5b826004811115610e6157fe5b1415610e955784604051602001610e789190611849565b604051602081830303815290604052805190602001209450610ede565b600480811115610ea157fe5b826004811115610ead57fe5b1415610edd5784604051602001610ec49190611823565b6040516020818303038152906040528051906020012094505b5b5b6001858286600160038110610ef057fe5b602002015187600260038110610f0257fe5b602002015160405160008152602001604052604051610f249493929190611997565b6020604051602081039080840390855afa158015610f46573d6000803e3d6000fd5b50505060206040510351925050505b92915050565b6000610f678235611ca4565b905092915050565b600082601f830112610f8057600080fd5b8135610f93610f8e82611b3f565b611b12565b91508181835260208401935060208101905083856020840282011115610fb857600080fd5b60005b83811015610fe85781610fce8882610f5b565b845260208401935060208301925050600181019050610fbb565b5050505092915050565b600082601f83011261100357600080fd5b813561101661101182611b67565b611b12565b9150818183526020840193506020810190508385606084028201111561103b57600080fd5b60005b8381101561106b57816110518882611075565b84526020840193506060830192505060018101905061103e565b5050505092915050565b600082601f83011261108657600080fd5b600361109961109482611b8f565b611b12565b915081838560208402820111156110af57600080fd5b60005b838110156110df57816110c5888261116c565b8452602084019350602083019250506001810190506110b2565b5050505092915050565b600082601f8301126110fa57600080fd5b813561110d61110882611bb1565b611b12565b9150818183526020840193506020810190508385602084028201111561113257600080fd5b60005b838110156111625781611148888261116c565b845260208401935060208301925050600181019050611135565b5050505092915050565b60006111788235611cb6565b905092915050565b600060c0828403121561119257600080fd5b61119c60c0611b12565b905060006111ac84828501610f5b565b60008301525060206111c084828501610f5b565b60208301525060406111d484828501611234565b60408301525060606111e884828501611234565b606083015250608082013567ffffffffffffffff81111561120857600080fd5b61121484828501610f6f565b60808301525060a06112288482850161116c565b60a08301525092915050565b60006112408235611ce0565b905092915050565b60006020828403121561125a57600080fd5b60006112688482850161116c565b91505092915050565b6000806040838503121561128457600080fd5b60006112928582860161116c565b92505060206112a385828601610f5b565b9150509250929050565b6000602082840312156112bf57600080fd5b600082013567ffffffffffffffff8111156112d957600080fd5b6112e584828501611180565b91505092915050565b600080600080600060a0868803121561130657600080fd5b600086013567ffffffffffffffff81111561132057600080fd5b61132c88828901611180565b955050602061133d8882890161116c565b945050604086013567ffffffffffffffff81111561135a57600080fd5b61136688828901610ff2565b935050606086013567ffffffffffffffff81111561138357600080fd5b61138f888289016110e9565b92505060806113a088828901611234565b9150509295509295909350565b60006113b983836113d4565b60208301905092915050565b6113ce81611c3d565b82525050565b6113dd81611c2b565b82525050565b6113ec81611c2b565b82525050565b60006113fd82611be6565b6114078185611bfe565b935061141283611bd9565b60005b82811015611440576114288683516113ad565b955061143382611bf1565b9150600181019050611415565b50849250505092915050565b61145581611c4f565b82525050565b61146c61146782611c4f565b611cfc565b82525050565b61147b81611cea565b82525050565b600061148e601c83611c20565b91507f19457468657265756d205369676e6564204d6573736167653a0a3332000000006000830152601c82019050919050565b60006114ce600d83611c0f565b91507f494e56414c49445f5354415445000000000000000000000000000000000000006000830152602082019050919050565b600061150e601883611c0f565b91507f4e4f545f5349474e45445f42595f56414c494441544f525300000000000000006000830152602082019050919050565b600061154e600b83611c0f565b91507f4e4f545f455850495245440000000000000000000000000000000000000000006000830152602082019050919050565b600061158e600f83611c0f565b91507f494e56414c49445f4348414e4e454c00000000000000000000000000000000006000830152602082019050919050565b60006115ce606983611c20565b91507f19457468657265756d205369676e6564204d6573736167653a0a31303842792060008301527f7369676e696e672074686973206d6573736167652c20796f752061636b6e6f7760208301527f6c65646765207369676e696e6720616e2041644578206269642077697468207460408301527f686520686173683a0a00000000000000000000000000000000000000000000006060830152606982019050919050565b6000611680601d83611c0f565b91507f5749544844524157494e475f4d4f52455f5448414e5f4348414e4e454c0000006000830152602082019050919050565b60006116c0600f83611c0f565b91507f494e56414c49445f43524541544f5200000000000000000000000000000000006000830152602082019050919050565b6000611700600783611c0f565b91507f45585049524544000000000000000000000000000000000000000000000000006000830152602082019050919050565b6000611740601b83611c20565b91507f19457468657265756d205369676e6564204d6573736167653a0a2000000000006000830152601b82019050919050565b6000611780601583611c0f565b91507f42414c414e43454c4541465f4e4f545f464f554e4400000000000000000000006000830152602082019050919050565b6117bc81611c8d565b82525050565b6117cb81611c97565b82525050565b60006117dd828561145b565b6020820191506117ed828461145b565b6020820191508190509392505050565b600061180882611481565b9150611814828461145b565b60208201915081905092915050565b600061182e826115c1565b915061183a828461145b565b60208201915081905092915050565b600061185482611733565b9150611860828461145b565b60208201915081905092915050565b600060408201905061188460008301856113c5565b61189160208301846117b3565b9392505050565b600060e0820190506118ad600083018a6113e3565b6118ba60208301896113e3565b6118c760408301886113e3565b6118d460608301876117b3565b6118e160808301866117b3565b81810360a08301526118f381856113f2565b905061190260c083018461144c565b98975050505050505050565b600060608201905061192360008301866113e3565b61193060208301856113e3565b61193d60408301846117b3565b949350505050565b600060408201905061195a60008301856113e3565b61196760208301846117b3565b9392505050565b6000604082019050611983600083018561144c565b611990602083018461144c565b9392505050565b60006080820190506119ac600083018761144c565b6119b960208301866117c2565b6119c6604083018561144c565b6119d3606083018461144c565b95945050505050565b60006020820190506119f16000830184611472565b92915050565b60006020820190508181036000830152611a10816114c1565b9050919050565b60006020820190508181036000830152611a3081611501565b9050919050565b60006020820190508181036000830152611a5081611541565b9050919050565b60006020820190508181036000830152611a7081611581565b9050919050565b60006020820190508181036000830152611a9081611673565b9050919050565b60006020820190508181036000830152611ab0816116b3565b9050919050565b60006020820190508181036000830152611ad0816116f3565b9050919050565b60006020820190508181036000830152611af081611773565b9050919050565b6000602082019050611b0c60008301846117b3565b92915050565b6000604051905081810181811067ffffffffffffffff82111715611b3557600080fd5b8060405250919050565b600067ffffffffffffffff821115611b5657600080fd5b602082029050602081019050919050565b600067ffffffffffffffff821115611b7e57600080fd5b602082029050602081019050919050565b600067ffffffffffffffff821115611ba657600080fd5b602082029050919050565b600067ffffffffffffffff821115611bc857600080fd5b602082029050602081019050919050565b6000602082019050919050565b600081519050919050565b6000602082019050919050565b600082825260208201905092915050565b600082825260208201905092915050565b600081905092915050565b6000611c3682611c6d565b9050919050565b6000611c4882611c6d565b9050919050565b6000819050919050565b600060038210611c6557fe5b819050919050565b600073ffffffffffffffffffffffffffffffffffffffff82169050919050565b6000819050919050565b600060ff82169050919050565b6000611caf82611cc0565b9050919050565b6000819050919050565b600073ffffffffffffffffffffffffffffffffffffffff82169050919050565b6000819050919050565b6000611cf582611c59565b9050919050565b600081905091905056fea265627a7a7230582033dfe5d1fb4eb56ad8e8e58298d2c8366486926e32847136686322e9bdf0731a6c6578706572696d656e74616cf50037",
  "source": "pragma solidity ^0.5.6;\r\npragma experimental ABIEncoderV2;\r\n\r\nimport \"./libs/SafeMath.sol\";\r\nimport \"./libs/SafeERC20.sol\";\r\nimport \"./libs/MerkleProof.sol\";\r\nimport \"./libs/ChannelLibrary.sol\";\r\n\r\n// AUDIT: Things we should look for\r\n// 1) every time we check the state, the function should either revert or change the state\r\n// 2) state transition: channelOpen locks up tokens, then all of the tokens can be withdrawn on channelExpiredWithdraw, except how many were withdrawn using channelWithdraw\r\n// 3) external calls (everything using SafeERC20) should be at the end\r\n// 4) channel can always be 100% drained with Withdraw/ExpiredWithdraw\r\n\r\ncontract AdExCore {\r\n\tusing SafeMath for uint;\r\n\tusing ChannelLibrary for ChannelLibrary.Channel;\r\n\r\n \t// channelId => channelState\r\n\tmapping (bytes32 => ChannelLibrary.State) public states;\r\n\t\r\n\t// withdrawn per channel (channelId => uint)\r\n\tmapping (bytes32 => uint) public withdrawn;\r\n\t// withdrawn per channel user (channelId => (account => uint))\r\n\tmapping (bytes32 => mapping (address => uint)) public withdrawnPerUser;\r\n\r\n\t// Events\r\n\tevent LogChannelOpen(bytes32 indexed channelId);\r\n\tevent LogChannelWithdrawExpired(bytes32 indexed channelId, uint amount);\r\n\tevent LogChannelWithdraw(bytes32 indexed channelId, uint amount);\r\n\r\n\t// All functions are public\r\n\tfunction channelOpen(ChannelLibrary.Channel memory channel)\r\n\t\tpublic\r\n\t{\r\n\t\tbytes32 channelId = channel.hash();\r\n\t\trequire(states[channelId] == ChannelLibrary.State.Unknown, \"INVALID_STATE\");\r\n\t\trequire(msg.sender == channel.creator, \"INVALID_CREATOR\");\r\n\t\trequire(channel.isValid(now), \"INVALID_CHANNEL\");\r\n\t\t\r\n\t\tstates[channelId] = ChannelLibrary.State.Active;\r\n\r\n\t\tSafeERC20.transferFrom(channel.tokenAddr, msg.sender, address(this), channel.tokenAmount);\r\n\r\n\t\temit LogChannelOpen(channelId);\r\n\t}\r\n\r\n\tfunction channelWithdrawExpired(ChannelLibrary.Channel memory channel)\r\n\t\tpublic\r\n\t{\r\n\t\tbytes32 channelId = channel.hash();\r\n\t\trequire(states[channelId] == ChannelLibrary.State.Active, \"INVALID_STATE\");\r\n\t\trequire(now > channel.validUntil, \"NOT_EXPIRED\");\r\n\t\trequire(msg.sender == channel.creator, \"INVALID_CREATOR\");\r\n\t\t\r\n\t\tuint toWithdraw = channel.tokenAmount.sub(withdrawn[channelId]);\r\n\r\n\t\t// NOTE: we will not update withdrawn, since a WithdrawExpired does not count towards normal withdrawals\r\n\t\tstates[channelId] = ChannelLibrary.State.Expired;\r\n\t\t\r\n\t\tSafeERC20.transfer(channel.tokenAddr, msg.sender, toWithdraw);\r\n\r\n\t\temit LogChannelWithdrawExpired(channelId, toWithdraw);\r\n\t}\r\n\r\n\tfunction channelWithdraw(ChannelLibrary.Channel memory channel, bytes32 stateRoot, bytes32[3][] memory signatures, bytes32[] memory proof, uint amountInTree)\r\n\t\tpublic\r\n\t{\r\n\t\tbytes32 channelId = channel.hash();\r\n\t\trequire(states[channelId] == ChannelLibrary.State.Active, \"INVALID_STATE\");\r\n\t\trequire(now <= channel.validUntil, \"EXPIRED\");\r\n\r\n\t\tbytes32 hashToSign = keccak256(abi.encode(channelId, stateRoot));\r\n\t\trequire(channel.isSignedBySupermajority(hashToSign, signatures), \"NOT_SIGNED_BY_VALIDATORS\");\r\n\r\n\t\tbytes32 balanceLeaf = keccak256(abi.encode(msg.sender, amountInTree));\r\n\t\trequire(MerkleProof.isContained(balanceLeaf, proof, stateRoot), \"BALANCELEAF_NOT_FOUND\");\r\n\r\n\t\t// The user can withdraw their constantly increasing balance at any time (essentially prevent users from double spending)\r\n\t\tuint toWithdraw = amountInTree.sub(withdrawnPerUser[channelId][msg.sender]);\r\n\t\twithdrawnPerUser[channelId][msg.sender] = amountInTree;\r\n\r\n\t\t// Ensure that it's not possible to withdraw more than the channel deposit (e.g. malicious validators sign such a state)\r\n\t\twithdrawn[channelId] = withdrawn[channelId].add(toWithdraw);\r\n\t\trequire(withdrawn[channelId] <= channel.tokenAmount, \"WITHDRAWING_MORE_THAN_CHANNEL\");\r\n\r\n\t\tSafeERC20.transfer(channel.tokenAddr, msg.sender, toWithdraw);\r\n\r\n\t\temit LogChannelWithdraw(channelId, toWithdraw);\r\n\t}\r\n}\r\n",
  "sourcePath": "C:\\git\\adex-protocol-eth\\contracts\\AdExCore.sol",
  "compiler": {
    "name": "solc",
    "version": "0.5.6+commit.b259423e.Emscripten.clang"
  },
  "schemaVersion": "3.0.5",
  "updatedAt": "2019-03-25T16:38:06.023Z",
  "devdoc": {
    "methods": {}
  },
  "userdoc": {
    "methods": {}
  }
}