{
  "contractName": "Identity",
  "abi": [
    {
      "constant": true,
      "inputs": [],
      "name": "registryAddr",
      "outputs": [
        {
          "name": "",
          "type": "address"
        }
      ],
      "payable": false,
      "stateMutability": "view",
      "type": "function"
    },
    {
      "constant": true,
      "inputs": [
        {
          "name": "",
          "type": "bytes32"
        }
      ],
      "name": "routinePaidFees",
      "outputs": [
        {
          "name": "",
          "type": "bool"
        }
      ],
      "payable": false,
      "stateMutability": "view",
      "type": "function"
    },
    {
      "constant": true,
      "inputs": [],
      "name": "nonce",
      "outputs": [
        {
          "name": "",
          "type": "uint256"
        }
      ],
      "payable": false,
      "stateMutability": "view",
      "type": "function"
    },
    {
      "constant": true,
      "inputs": [
        {
          "name": "",
          "type": "address"
        }
      ],
      "name": "privileges",
      "outputs": [
        {
          "name": "",
          "type": "uint8"
        }
      ],
      "payable": false,
      "stateMutability": "view",
      "type": "function"
    },
    {
      "inputs": [
        {
          "name": "feeTokenAddr",
          "type": "address"
        },
        {
          "name": "feeBeneficiery",
          "type": "address"
        },
        {
          "name": "feeTokenAmount",
          "type": "uint256"
        },
        {
          "name": "addrs",
          "type": "address[]"
        },
        {
          "name": "privLevels",
          "type": "uint8[]"
        },
        {
          "name": "regAddr",
          "type": "address"
        }
      ],
      "payable": false,
      "stateMutability": "nonpayable",
      "type": "constructor"
    },
    {
      "anonymous": false,
      "inputs": [
        {
          "indexed": true,
          "name": "addr",
          "type": "address"
        },
        {
          "indexed": false,
          "name": "privLevel",
          "type": "uint8"
        }
      ],
      "name": "LogPrivilegeChanged",
      "type": "event"
    },
    {
      "constant": false,
      "inputs": [
        {
          "name": "addr",
          "type": "address"
        },
        {
          "name": "privLevel",
          "type": "uint8"
        }
      ],
      "name": "setAddrPrivilege",
      "outputs": [],
      "payable": false,
      "stateMutability": "nonpayable",
      "type": "function"
    },
    {
      "constant": false,
      "inputs": [
        {
          "components": [
            {
              "name": "identityContract",
              "type": "address"
            },
            {
              "name": "nonce",
              "type": "uint256"
            },
            {
              "name": "feeTokenAddr",
              "type": "address"
            },
            {
              "name": "feeTokenAmount",
              "type": "uint256"
            },
            {
              "name": "to",
              "type": "address"
            },
            {
              "name": "value",
              "type": "uint256"
            },
            {
              "name": "data",
              "type": "bytes"
            }
          ],
          "name": "txns",
          "type": "tuple[]"
        },
        {
          "name": "signatures",
          "type": "bytes32[3][]"
        }
      ],
      "name": "execute",
      "outputs": [],
      "payable": false,
      "stateMutability": "nonpayable",
      "type": "function"
    },
    {
      "constant": false,
      "inputs": [
        {
          "components": [
            {
              "name": "identityContract",
              "type": "address"
            },
            {
              "name": "relayer",
              "type": "address"
            },
            {
              "name": "outpace",
              "type": "address"
            },
            {
              "name": "validUntil",
              "type": "uint256"
            },
            {
              "name": "feeTokenAddr",
              "type": "address"
            },
            {
              "name": "feeTokenAmount",
              "type": "uint256"
            }
          ],
          "name": "auth",
          "type": "tuple"
        },
        {
          "name": "signature",
          "type": "bytes32[3]"
        },
        {
          "components": [
            {
              "name": "mode",
              "type": "uint256"
            },
            {
              "name": "data",
              "type": "bytes"
            }
          ],
          "name": "operations",
          "type": "tuple[]"
        }
      ],
      "name": "executeRoutines",
      "outputs": [],
      "payable": false,
      "stateMutability": "nonpayable",
      "type": "function"
    }
  ],
  "bytecode": "0x6080604052600073ffffffffffffffffffffffffffffffffffffffff1663ed66d85790507c0100000000000000000000000000000000000000000000000000000000026000806101000a81548163ffffffff02191690837c010000000000000000000000000000000000000000000000000000000090040217905550600073ffffffffffffffffffffffffffffffffffffffff1663ef3600be90507c010000000000000000000000000000000000000000000000000000000002600060046101000a81548163ffffffff02191690837c010000000000000000000000000000000000000000000000000000000090040217905550600073ffffffffffffffffffffffffffffffffffffffff16637e881aab90507c010000000000000000000000000000000000000000000000000000000002600060086101000a81548163ffffffff02191690837c01000000000000000000000000000000000000000000000000000000009004021790555060006001553480156200017d57600080fd5b50604051620031b0380380620031b08339810180604052620001a391908101906200058c565b80600460006101000a81548173ffffffffffffffffffffffffffffffffffffffff021916908373ffffffffffffffffffffffffffffffffffffffff16021790555060008251905060008090505b81811015620002ff578381815181106200020657fe5b6020026020010151600260008784815181106200021f57fe5b602002602001015173ffffffffffffffffffffffffffffffffffffffff1673ffffffffffffffffffffffffffffffffffffffff16815260200190815260200160002060006101000a81548160ff021916908360ff1602179055508481815181106200028657fe5b602002602001015173ffffffffffffffffffffffffffffffffffffffff167f9685487d203e6d23591605e642082a4c0b3e0b18fa34bafa9ee7ed77e135faac858381518110620002d257fe5b6020026020010151604051620002e99190620006b4565b60405180910390a28080600101915050620001f0565b5060008511156200032c576200032b878787620003396401000000000262001112176401000000009004565b5b50505050505050620007e7565b8273ffffffffffffffffffffffffffffffffffffffff1663a9059cbb83836040518363ffffffff167c01000000000000000000000000000000000000000000000000000000000281526004016200039292919062000687565b600060405180830381600087803b158015620003ad57600080fd5b505af1158015620003c2573d6000803e3d6000fd5b50505050620003df620003ee640100000000026401000000009004565b620003e957600080fd5b505050565b600080600090503d600081146200040e5760208114620004185762000424565b6001915062000424565b60206000803e60005191505b50600081141591505090565b60006200043e82516200079c565b905092915050565b600082601f8301126200045857600080fd5b81516200046f6200046982620006ff565b620006d1565b915081818352602084019350602081019050838560208402820111156200049557600080fd5b60005b83811015620004c95781620004ae888262000430565b84526020840193506020830192505060018101905062000498565b5050505092915050565b600082601f830112620004e557600080fd5b8151620004fc620004f68262000728565b620006d1565b915081818352602084019350602081019050838560208402820111156200052257600080fd5b60005b838110156200055657816200053b888262000576565b84526020840193506020830192505060018101905062000525565b5050505092915050565b60006200056e8251620007d0565b905092915050565b6000620005848251620007da565b905092915050565b60008060008060008060c08789031215620005a657600080fd5b6000620005b689828a0162000430565b9650506020620005c989828a0162000430565b9550506040620005dc89828a0162000560565b945050606087015167ffffffffffffffff811115620005fa57600080fd5b6200060889828a0162000446565b935050608087015167ffffffffffffffff8111156200062657600080fd5b6200063489828a01620004d3565b92505060a06200064789828a0162000430565b9150509295509295509295565b6200065f8162000751565b82525050565b620006708162000785565b82525050565b62000681816200078f565b82525050565b60006040820190506200069e600083018562000654565b620006ad602083018462000665565b9392505050565b6000602082019050620006cb600083018462000676565b92915050565b6000604051905081810181811067ffffffffffffffff82111715620006f557600080fd5b8060405250919050565b600067ffffffffffffffff8211156200071757600080fd5b602082029050602081019050919050565b600067ffffffffffffffff8211156200074057600080fd5b602082029050602081019050919050565b60006200075e8262000765565b9050919050565b600073ffffffffffffffffffffffffffffffffffffffff82169050919050565b6000819050919050565b600060ff82169050919050565b6000620007a982620007b0565b9050919050565b600073ffffffffffffffffffffffffffffffffffffffff82169050919050565b6000819050919050565b600060ff82169050919050565b6129b980620007f76000396000f3fe608060405234801561001057600080fd5b506004361061009a576000357c010000000000000000000000000000000000000000000000000000000090048063a6e6b44611610078578063a6e6b446146100f5578063affed0e014610125578063c066a5b114610143578063e9c90ddc146101735761009a565b806346c3d5221461009f57806351da2eaa146100bb578063951a02af146100d9575b600080fd5b6100b960048036036100b491908101906119bf565b61018f565b005b6100c36102a7565b6040516100d09190612311565b60405180910390f35b6100f360048036036100ee91908101906119fb565b6102cd565b005b61010f600480360361010a9190810190611a90565b6106ba565b60405161011c91906123cb565b60405180910390f35b61012d6106da565b60405161013a9190612666565b60405180910390f35b61015d60048036036101589190810190611947565b6106e0565b60405161016a9190612681565b60405180910390f35b61018d60048036036101889190810190611afa565b610700565b005b3073ffffffffffffffffffffffffffffffffffffffff163373ffffffffffffffffffffffffffffffffffffffff16146101fd576040517f08c379a00000000000000000000000000000000000000000000000000000000081526004016101f49061258b565b60405180910390fd5b80600260008473ffffffffffffffffffffffffffffffffffffffff1673ffffffffffffffffffffffffffffffffffffffff16815260200190815260200160002060006101000a81548160ff021916908360ff1602179055508173ffffffffffffffffffffffffffffffffffffffff167f9685487d203e6d23591605e642082a4c0b3e0b18fa34bafa9ee7ed77e135faac8260405161029b9190612681565b60405180910390a25050565b600460009054906101000a900473ffffffffffffffffffffffffffffffffffffffff1681565b6000826000815181106102dc57fe5b6020026020010151604001519050600080905060008451905060008090505b8181101561069d5761030b6111ef565b86828151811061031757fe5b602002602001015190503073ffffffffffffffffffffffffffffffffffffffff16816000015173ffffffffffffffffffffffffffffffffffffffff1614610393576040517f08c379a000000000000000000000000000000000000000000000000000000000815260040161038a9061242b565b60405180910390fd5b8473ffffffffffffffffffffffffffffffffffffffff16816040015173ffffffffffffffffffffffffffffffffffffffff1614610405576040517f08c379a00000000000000000000000000000000000000000000000000000000081526004016103fc9061262b565b60405180910390fd5b60015481602001511461044d576040517f08c379a00000000000000000000000000000000000000000000000000000000081526004016104449061248b565b60405180910390fd5b6000816000015182602001518360400151846060015185608001518660a001518760c001516040516020016104889796959493929190612355565b60405160208183030381529060405280519060200120905060006104bf828986815181106104b257fe5b6020026020010151610e76565b9050600260038111156104ce57fe5b60ff16600260008373ffffffffffffffffffffffffffffffffffffffff1673ffffffffffffffffffffffffffffffffffffffff16815260200190815260200160002060009054906101000a900460ff1660ff161015610562576040517f08c379a00000000000000000000000000000000000000000000000000000000081526004016105599061250b565b60405180910390fd5b610577600180546110de90919063ffffffff16565b6001819055506105948360600151876110de90919063ffffffff16565b95506105ad83608001518460a001518560c001516110fa565b6105ec576040517f08c379a00000000000000000000000000000000000000000000000000000000081526004016105e39061260b565b60405180910390fd5b600260038111156105f957fe5b60ff16600260008373ffffffffffffffffffffffffffffffffffffffff1673ffffffffffffffffffffffffffffffffffffffff16815260200190815260200160002060009054906101000a900460ff1660ff16101561068d576040517f08c379a00000000000000000000000000000000000000000000000000000000081526004016106849061244b565b60405180910390fd5b50505080806001019150506102fb565b5060008211156106b3576106b2833384611112565b5b5050505050565b60036020528060005260406000206000915054906101000a900460ff1681565b60015481565b60026020528060005260406000206000915054906101000a900460ff1681565b3073ffffffffffffffffffffffffffffffffffffffff16836000015173ffffffffffffffffffffffffffffffffffffffff1614610772576040517f08c379a0000000000000000000000000000000000000000000000000000000008152600401610769906125eb565b60405180910390fd5b3373ffffffffffffffffffffffffffffffffffffffff16836020015173ffffffffffffffffffffffffffffffffffffffff16146107e4576040517f08c379a00000000000000000000000000000000000000000000000000000000081526004016107db906124cb565b60405180910390fd5b428360600151101561082b576040517f08c379a00000000000000000000000000000000000000000000000000000000081526004016108229061254b565b60405180910390fd5b60008360405160200161083e919061264b565b60405160208183030381529060405280519060200120905060006108628285610e76565b90506001600381111561087157fe5b60ff16600260008373ffffffffffffffffffffffffffffffffffffffff1673ffffffffffffffffffffffffffffffffffffffff16815260200190815260200160002060009054906101000a900460ff1660ff161015610905576040517f08c379a00000000000000000000000000000000000000000000000000000000081526004016108fc9061246b565b60405180910390fd5b60008351905060008090505b81811015610df65761092161126e565b85828151811061092d57fe5b602002602001015190506000816000015114156109ed5760006109a5896040015160008060009054906101000a90047c0100000000000000000000000000000000000000000000000000000000028560200151604051602001610991929190612277565b6040516020818303038152906040526110fa565b9050806109e7576040517f08c379a00000000000000000000000000000000000000000000000000000000081526004016109de906124eb565b60405180910390fd5b50610de8565b600181600001511415610aa3576000610a5b896040015160008060049054906101000a90047c0100000000000000000000000000000000000000000000000000000000028560200151604051602001610a47929190612277565b6040516020818303038152906040526110fa565b905080610a9d576040517f08c379a0000000000000000000000000000000000000000000000000000000008152600401610a94906124ab565b60405180910390fd5b50610de7565b600281600001511415610b865760008060008360200151806020019051610acd9190810190611970565b925092509250600380811115610adf57fe5b60ff16600260008473ffffffffffffffffffffffffffffffffffffffff1673ffffffffffffffffffffffffffffffffffffffff16815260200190815260200160002060009054906101000a900460ff1660ff161015610b73576040517f08c379a0000000000000000000000000000000000000000000000000000000008152600401610b6a906125cb565b60405180910390fd5b610b7e838383611112565b505050610de6565b600381600001511415610da357610b9b611288565b8160200151806020019051610bb39190810190611ab9565b90506000816080015151905060008090505b81811015610cf757600460009054906101000a900473ffffffffffffffffffffffffffffffffffffffff1673ffffffffffffffffffffffffffffffffffffffff1663d936547e84608001518381518110610c1b57fe5b60200260200101516040518263ffffffff167c0100000000000000000000000000000000000000000000000000000000028152600401610c5b9190612311565b60206040518083038186803b158015610c7357600080fd5b505afa158015610c87573d6000803e3d6000fd5b505050506040513d601f19601f82011682018060405250610cab9190810190611a67565b610cea576040517f08c379a0000000000000000000000000000000000000000000000000000000008152600401610ce1906125ab565b60405180910390fd5b8080600101915050610bc5565b506000610d598b6040015160008060089054906101000a90047c0100000000000000000000000000000000000000000000000000000000028760200151604051602001610d45929190612277565b6040516020818303038152906040526110fa565b905080610d9b576040517f08c379a0000000000000000000000000000000000000000000000000000000008152600401610d929061256b565b60405180910390fd5b505050610de5565b6000610de4576040517f08c379a0000000000000000000000000000000000000000000000000000000008152600401610ddb9061252b565b60405180910390fd5b5b5b5b5b508080600101915050610911565b506003600084815260200190815260200160002060009054906101000a900460ff16158015610e29575060008660a00151115b15610e6e5760016003600085815260200190815260200160002060006101000a81548160ff021916908315150217905550610e6d8660800151338860a00151611112565b5b505050505050565b60008082600060038110610e8657fe5b6020020151600060208110610e9757fe5b1a7f0100000000000000000000000000000000000000000000000000000000000000027f0100000000000000000000000000000000000000000000000000000000000000900460ff166004811115610eeb57fe5b905060006004811115610efa57fe5b816004811115610f0657fe5b1415610f165760009150506110d8565b600083600060038110610f2557fe5b6020020151600160208110610f3657fe5b1a7f0100000000000000000000000000000000000000000000000000000000000000027f01000000000000000000000000000000000000000000000000000000000000009004905060026004811115610f8b57fe5b826004811115610f9757fe5b1415610fcb5784604051602001610fae919061229f565b604051602081830303815290604052805190602001209450611062565b60036004811115610fd857fe5b826004811115610fe457fe5b14156110185784604051602001610ffb91906122eb565b604051602081830303815290604052805190602001209450611061565b60048081111561102457fe5b82600481111561103057fe5b1415611060578460405160200161104791906122c5565b6040516020818303038152906040528051906020012094505b5b5b600185828660016003811061107357fe5b60200201518760026003811061108557fe5b6020020151604051600081526020016040526040516110a794939291906123e6565b6020604051602081039080840390855afa1580156110c9573d6000803e3d6000fd5b50505060206040510351925050505b92915050565b6000808284019050838110156110f057fe5b8091505092915050565b600080600083516020850186885af190509392505050565b8273ffffffffffffffffffffffffffffffffffffffff1663a9059cbb83836040518363ffffffff167c010000000000000000000000000000000000000000000000000000000002815260040161116992919061232c565b600060405180830381600087803b15801561118357600080fd5b505af1158015611197573d6000803e3d6000fd5b505050506111a36111b1565b6111ac57600080fd5b505050565b600080600090503d600081146111ce57602081146111d7576111e3565b600191506111e3565b60206000803e60005191505b50600081141591505090565b6040518060e00160405280600073ffffffffffffffffffffffffffffffffffffffff16815260200160008152602001600073ffffffffffffffffffffffffffffffffffffffff16815260200160008152602001600073ffffffffffffffffffffffffffffffffffffffff16815260200160008152602001606081525090565b604051806040016040528060008152602001606081525090565b6040518060c00160405280600073ffffffffffffffffffffffffffffffffffffffff168152602001600073ffffffffffffffffffffffffffffffffffffffff168152602001600081526020016000815260200160608152602001600080191681525090565b60006112f982356128a7565b905092915050565b600061130d82516128a7565b905092915050565b600061132182516128b9565b905092915050565b600082601f83011261133a57600080fd5b815161134d611348826126c9565b61269c565b9150818183526020840193506020810190508385602084028201111561137257600080fd5b60005b838110156113a257816113888882611301565b845260208401935060208301925050600181019050611375565b5050505092915050565b600082601f8301126113bd57600080fd5b81356113d06113cb826126f1565b61269c565b915081818352602084019350602081019050838560608402820111156113f557600080fd5b60005b83811015611425578161140b888261142f565b8452602084019350606083019250506001810190506113f8565b5050505092915050565b600082601f83011261144057600080fd5b600361145361144e82612719565b61269c565b9150818385602084028201111561146957600080fd5b60005b83811015611499578161147f8882611613565b84526020840193506020830192505060018101905061146c565b5050505092915050565b600082601f8301126114b457600080fd5b60036114c76114c28261273b565b61269c565b915081838560208402820111156114dd57600080fd5b60005b8381101561150d57816114f38882611613565b8452602084019350602083019250506001810190506114e0565b5050505092915050565b600082601f83011261152857600080fd5b813561153b6115368261275d565b61269c565b9150818183526020840193506020810190508360005b83811015611581578135860161156788826117df565b845260208401935060208301925050600181019050611551565b5050505092915050565b600082601f83011261159c57600080fd5b81356115af6115aa82612785565b61269c565b9150818183526020840193506020810190508360005b838110156115f557813586016115db8882611843565b8452602084019350602083019250506001810190506115c5565b5050505092915050565b600061160b82516128cb565b905092915050565b600061161f82356128d7565b905092915050565b600061163382516128d7565b905092915050565b600082601f83011261164c57600080fd5b813561165f61165a826127ad565b61269c565b9150808252602083016020830185838301111561167b57600080fd5b611686838284612918565b50505092915050565b600060c082840312156116a157600080fd5b6116ab60c061269c565b905060006116bb84828501611301565b60008301525060206116cf84828501611301565b60208301525060406116e38482850161191f565b60408301525060606116f78482850161191f565b606083015250608082015167ffffffffffffffff81111561171757600080fd5b61172384828501611329565b60808301525060a061173784828501611627565b60a08301525092915050565b600060c0828403121561175557600080fd5b61175f60c061269c565b9050600061176f848285016112ed565b6000830152506020611783848285016112ed565b6020830152506040611797848285016112ed565b60408301525060606117ab8482850161190b565b60608301525060806117bf848285016112ed565b60808301525060a06117d38482850161190b565b60a08301525092915050565b6000604082840312156117f157600080fd5b6117fb604061269c565b9050600061180b8482850161190b565b600083015250602082013567ffffffffffffffff81111561182b57600080fd5b6118378482850161163b565b60208301525092915050565b600060e0828403121561185557600080fd5b61185f60e061269c565b9050600061186f848285016112ed565b60008301525060206118838482850161190b565b6020830152506040611897848285016112ed565b60408301525060606118ab8482850161190b565b60608301525060806118bf848285016112ed565b60808301525060a06118d38482850161190b565b60a08301525060c082013567ffffffffffffffff8111156118f357600080fd5b6118ff8482850161163b565b60c08301525092915050565b60006119178235612901565b905092915050565b600061192b8251612901565b905092915050565b600061193f823561290b565b905092915050565b60006020828403121561195957600080fd5b6000611967848285016112ed565b91505092915050565b60008060006060848603121561198557600080fd5b600061199386828701611315565b93505060206119a486828701611315565b92505060406119b58682870161191f565b9150509250925092565b600080604083850312156119d257600080fd5b60006119e0858286016112ed565b92505060206119f185828601611933565b9150509250929050565b60008060408385031215611a0e57600080fd5b600083013567ffffffffffffffff811115611a2857600080fd5b611a348582860161158b565b925050602083013567ffffffffffffffff811115611a5157600080fd5b611a5d858286016113ac565b9150509250929050565b600060208284031215611a7957600080fd5b6000611a87848285016115ff565b91505092915050565b600060208284031215611aa257600080fd5b6000611ab084828501611613565b91505092915050565b600060208284031215611acb57600080fd5b600082015167ffffffffffffffff811115611ae557600080fd5b611af18482850161168f565b91505092915050565b60008060006101408486031215611b1057600080fd5b6000611b1e86828701611743565b93505060c0611b2f868287016114a3565b92505061012084013567ffffffffffffffff811115611b4d57600080fd5b611b5986828701611517565b9150509250925092565b611b6c8161281c565b82525050565b611b7b8161281c565b82525050565b611b8a8161282e565b82525050565b611b998161283a565b82525050565b611bb0611bab8261283a565b61295a565b82525050565b611bc7611bc282612844565b612964565b82525050565b6000611bd8826127d9565b611be281856127e4565b9350611bf2818560208601612927565b611bfb8161296e565b840191505092915050565b6000611c11826127d9565b611c1b81856127f5565b9350611c2b818560208601612927565b80840191505092915050565b6000611c44601c83612800565b91507f5452414e53414354494f4e5f4e4f545f464f525f434f4e5452414354000000006000830152602082019050919050565b6000611c84601c83612811565b91507f19457468657265756d205369676e6564204d6573736167653a0a3332000000006000830152601c82019050919050565b6000611cc4601883612800565b91507f50524956494c4547455f4e4f545f444f574e47524144454400000000000000006000830152602082019050919050565b6000611d04601683612800565b91507f494e53554646494349454e545f50524956494c454745000000000000000000006000830152602082019050919050565b6000611d44600b83612800565b91507f57524f4e475f4e4f4e43450000000000000000000000000000000000000000006000830152602082019050919050565b6000611d84601783612800565b91507f57495448445241575f455850495245445f4641494c45440000000000000000006000830152602082019050919050565b6000611dc4601583612800565b91507f4f4e4c595f52454c415945525f43414e5f43414c4c00000000000000000000006000830152602082019050919050565b6000611e04600f83612800565b91507f57495448445241575f4641494c454400000000000000000000000000000000006000830152602082019050919050565b6000611e44602283612800565b91507f494e53554646494349454e545f50524956494c4547455f5452414e534143544960008301527f4f4e0000000000000000000000000000000000000000000000000000000000006020830152604082019050919050565b6000611eaa600c83612800565b91507f494e56414c49445f4d4f444500000000000000000000000000000000000000006000830152602082019050919050565b6000611eea601583612800565b91507f415554484f52495a4154494f4e5f4558504952454400000000000000000000006000830152602082019050919050565b6000611f2a606983612811565b91507f19457468657265756d205369676e6564204d6573736167653a0a31303842792060008301527f7369676e696e672074686973206d6573736167652c20796f752061636b6e6f7760208301527f6c65646765207369676e696e6720616e2041644578206269642077697468207460408301527f686520686173683a0a00000000000000000000000000000000000000000000006060830152606982019050919050565b6000611fdc600b83612800565b91507f4f50454e5f4641494c45440000000000000000000000000000000000000000006000830152602082019050919050565b600061201c601683612800565b91507f4f4e4c595f4944454e544954595f43414e5f43414c4c000000000000000000006000830152602082019050919050565b600061205c601983612800565b91507f56414c494441544f525f4e4f545f57484954454c4953544544000000000000006000830152602082019050919050565b600061209c601f83612800565b91507f494e53554646494349454e545f50524956494c4547455f5749544844524157006000830152602082019050919050565b60006120dc601b83612811565b91507f19457468657265756d205369676e6564204d6573736167653a0a2000000000006000830152601b82019050919050565b600061211c601e83612800565b91507f415554484f52495a4154494f4e5f4e4f545f464f525f434f4e545241435400006000830152602082019050919050565b600061215c600b83612800565b91507f43414c4c5f4641494c45440000000000000000000000000000000000000000006000830152602082019050919050565b600061219c601a83612800565b91507f455845435554455f4e454544535f53494e474c455f544f4b454e0000000000006000830152602082019050919050565b60c0820160008201516121e56000850182611b63565b5060208201516121f86020850182611b63565b50604082015161220b6040850182611b63565b50606082015161221e606085018261224a565b5060808201516122316080850182611b63565b5060a082015161224460a085018261224a565b50505050565b61225381612890565b82525050565b61226281612890565b82525050565b6122718161289a565b82525050565b60006122838285611bb6565b6004820191506122938284611c06565b91508190509392505050565b60006122aa82611c77565b91506122b68284611b9f565b60208201915081905092915050565b60006122d082611f1d565b91506122dc8284611b9f565b60208201915081905092915050565b60006122f6826120cf565b91506123028284611b9f565b60208201915081905092915050565b60006020820190506123266000830184611b72565b92915050565b60006040820190506123416000830185611b72565b61234e6020830184612259565b9392505050565b600060e08201905061236a600083018a611b72565b6123776020830189612259565b6123846040830188611b72565b6123916060830187612259565b61239e6080830186611b72565b6123ab60a0830185612259565b81810360c08301526123bd8184611bcd565b905098975050505050505050565b60006020820190506123e06000830184611b81565b92915050565b60006080820190506123fb6000830187611b90565b6124086020830186612268565b6124156040830185611b90565b6124226060830184611b90565b95945050505050565b6000602082019050818103600083015261244481611c37565b9050919050565b6000602082019050818103600083015261246481611cb7565b9050919050565b6000602082019050818103600083015261248481611cf7565b9050919050565b600060208201905081810360008301526124a481611d37565b9050919050565b600060208201905081810360008301526124c481611d77565b9050919050565b600060208201905081810360008301526124e481611db7565b9050919050565b6000602082019050818103600083015261250481611df7565b9050919050565b6000602082019050818103600083015261252481611e37565b9050919050565b6000602082019050818103600083015261254481611e9d565b9050919050565b6000602082019050818103600083015261256481611edd565b9050919050565b6000602082019050818103600083015261258481611fcf565b9050919050565b600060208201905081810360008301526125a48161200f565b9050919050565b600060208201905081810360008301526125c48161204f565b9050919050565b600060208201905081810360008301526125e48161208f565b9050919050565b600060208201905081810360008301526126048161210f565b9050919050565b600060208201905081810360008301526126248161214f565b9050919050565b600060208201905081810360008301526126448161218f565b9050919050565b600060c08201905061266060008301846121cf565b92915050565b600060208201905061267b6000830184612259565b92915050565b60006020820190506126966000830184612268565b92915050565b6000604051905081810181811067ffffffffffffffff821117156126bf57600080fd5b8060405250919050565b600067ffffffffffffffff8211156126e057600080fd5b602082029050602081019050919050565b600067ffffffffffffffff82111561270857600080fd5b602082029050602081019050919050565b600067ffffffffffffffff82111561273057600080fd5b602082029050919050565b600067ffffffffffffffff82111561275257600080fd5b602082029050919050565b600067ffffffffffffffff82111561277457600080fd5b602082029050602081019050919050565b600067ffffffffffffffff82111561279c57600080fd5b602082029050602081019050919050565b600067ffffffffffffffff8211156127c457600080fd5b601f19601f8301169050602081019050919050565b600081519050919050565b600082825260208201905092915050565b600081905092915050565b600082825260208201905092915050565b600081905092915050565b600061282782612870565b9050919050565b60008115159050919050565b6000819050919050565b60007fffffffff0000000000000000000000000000000000000000000000000000000082169050919050565b600073ffffffffffffffffffffffffffffffffffffffff82169050919050565b6000819050919050565b600060ff82169050919050565b60006128b2826128e1565b9050919050565b60006128c4826128e1565b9050919050565b60008115159050919050565b6000819050919050565b600073ffffffffffffffffffffffffffffffffffffffff82169050919050565b6000819050919050565b600060ff82169050919050565b82818337600083830152505050565b60005b8381101561294557808201518184015260208101905061292a565b83811115612954576000848401525b50505050565b6000819050919050565b6000819050919050565b6000601f19601f830116905091905056fea265627a7a723058207e1470523f4957143b56ce0ae03c658d967f66dee1a7790ee9cdc9adde24170c6c6578706572696d656e74616cf50037",
  "source": "pragma solidity ^0.5.6;\r\npragma experimental ABIEncoderV2;\r\n\r\nimport \"../libs/SafeMath.sol\";\r\nimport \"../libs/SafeERC20.sol\";\r\nimport \"../libs/SignatureValidator.sol\";\r\nimport \"../AdExCore.sol\";\r\nimport \"../libs/ChannelLibrary.sol\";\r\n\r\ncontract ValidatorRegistry {\r\n\t// The contract will probably just use a mapping, but this is a generic interface\r\n\tfunction whitelisted(address) view external returns (bool);\r\n}\r\n\r\ncontract Identity {\r\n\tusing SafeMath for uint;\r\n\r\n\t// Constants\r\n\tbytes4 private CHANNEL_WITHDRAW_SELECTOR = AdExCore(0x0).channelWithdraw.selector;\r\n\tbytes4 private CHANNEL_WITHDRAW_EXPIRED_SELECTOR = AdExCore(0x0).channelWithdrawExpired.selector;\r\n\tbytes4 private CHANNEL_OPEN_SELECTOR = AdExCore(0x0).channelOpen.selector;\r\n\r\n\t// The next allowed nonce\r\n\tuint public nonce = 0;\r\n\tmapping (address => uint8) public privileges;\r\n\t// Routine operations are authorized at once for a period, fee is paid once\r\n\tmapping (bytes32 => bool) public routinePaidFees;\r\n\taddress public registryAddr;\r\n\r\n\tenum PrivilegeLevel {\r\n\t\tNone,\r\n\t\tRoutines,\r\n\t\tTransactions,\r\n\t\tWithdraw\r\n\t}\r\n\r\n\t// Events\r\n\tevent LogPrivilegeChanged(address indexed addr, uint8 privLevel);\r\n\r\n\t// Transaction structure\r\n\t// Those can be executed by keys with >= PrivilegeLevel.Transactions\r\n\t// Even though the contract cannot receive ETH, we are able to send ETH (.value), cause ETH might've been sent to the contract address before it's deployed\r\n\tstruct Transaction {\r\n\t\t// replay protection\r\n\t\taddress identityContract;\r\n\t\tuint nonce;\r\n\t\t// tx fee, in tokens\r\n\t\taddress feeTokenAddr;\r\n\t\tuint feeTokenAmount;\r\n\t\t// all the regular txn data\r\n\t\taddress to;\r\n\t\tuint value;\r\n\t\tbytes data;\r\n\t}\r\n\r\n\t// RoutineAuthorizations allow the user to authorize (via keys >= PrivilegeLevel.Routines) a particular relayer to do any number of routines\r\n\t// those routines are safe: e.g. withdrawing channels to the identity, or from the identity to the pre-approved withdraw (>= PrivilegeLevel.Withdraw) address\r\n\t// while the fee will be paid only ONCE per auth, the authorization can be used until validUntil\r\n\t// while the routines are safe, there is some level of implied trust as the relayer may run executeRoutines without any routines to claim the fee\r\n\tstruct RoutineAuthorization {\r\n\t\taddress identityContract;\r\n\t\taddress relayer;\r\n\t\taddress outpace;\r\n\t\tuint validUntil;\r\n\t\taddress feeTokenAddr;\r\n\t\tuint feeTokenAmount;\r\n\t}\r\n\tstruct RoutineOperation {\r\n\t\tuint mode;\r\n\t\tbytes data;\r\n\t}\r\n\r\n\tconstructor(address feeTokenAddr, address feeBeneficiery, uint feeTokenAmount, address[] memory addrs, uint8[] memory privLevels, address regAddr)\r\n\t\tpublic\r\n\t{\r\n\t\tregistryAddr = regAddr;\r\n\t\tuint len = privLevels.length;\r\n\t\tfor (uint i=0; i<len; i++) {\r\n\t\t\tprivileges[addrs[i]] = privLevels[i];\r\n\t\t\temit LogPrivilegeChanged(addrs[i], privLevels[i]);\r\n\t\t}\r\n\t\tif (feeTokenAmount > 0) {\r\n\t\t\tSafeERC20.transfer(feeTokenAddr, feeBeneficiery, feeTokenAmount);\r\n\t\t}\r\n\t}\r\n\r\n\tfunction setAddrPrivilege(address addr, uint8 privLevel)\r\n\t\texternal\r\n\t{\r\n\t\trequire(msg.sender == address(this), 'ONLY_IDENTITY_CAN_CALL');\r\n\r\n\t\t// @TODO: should we have on-chain anti-bricking guarantees? maybe there's an easy way to do this\r\n\t\t// since this can only be invoked by PrivilegeLevels.Transaction, maybe if we make sure we can't invoke setAddrPrivilege(addr, level) where addr == signer, it may be sufficient\r\n\t\tprivileges[addr] = privLevel;\r\n\t\temit LogPrivilegeChanged(addr, privLevel);\r\n\t}\r\n\r\n\tfunction execute(Transaction[] memory txns, bytes32[3][] memory signatures)\r\n\t\tpublic\r\n\t{\r\n\t\taddress feeTokenAddr = txns[0].feeTokenAddr;\r\n\t\tuint feeTokenAmount = 0;\r\n\t\tuint len = txns.length;\r\n\t\tfor (uint i=0; i<len; i++) {\r\n\t\t\tTransaction memory txn = txns[i];\r\n\t\t\trequire(txn.identityContract == address(this), 'TRANSACTION_NOT_FOR_CONTRACT');\r\n\t\t\trequire(txn.feeTokenAddr == feeTokenAddr, 'EXECUTE_NEEDS_SINGLE_TOKEN');\r\n\t\t\trequire(txn.nonce == nonce, 'WRONG_NONCE');\r\n\r\n\t\t\t// If we use the naive abi.encode(txn) and have a field of type `bytes`,\r\n\t\t\t// there is a discrepancy between ethereumjs-abi and solidity\r\n\t\t\t// if we enter every field individually, in order, there is no discrepancy\r\n\t\t\t//bytes32 hash = keccak256(abi.encode(txn));\r\n\t\t\tbytes32 hash = keccak256(abi.encode(txn.identityContract, txn.nonce, txn.feeTokenAddr, txn.feeTokenAmount, txn.to, txn.value, txn.data));\r\n\t\t\taddress signer = SignatureValidator.recoverAddr(hash, signatures[i]);\r\n\r\n\t\t\trequire(privileges[signer] >= uint8(PrivilegeLevel.Transactions), 'INSUFFICIENT_PRIVILEGE_TRANSACTION');\r\n\r\n\t\t\tnonce = nonce.add(1);\r\n\t\t\tfeeTokenAmount = feeTokenAmount.add(txn.feeTokenAmount);\r\n\r\n\t\t\trequire(executeCall(txn.to, txn.value, txn.data), 'CALL_FAILED');\r\n\t\t\t// The actual anti-bricking mechanism - do not allow a signer to drop his own priviledges\r\n\t\t\trequire(privileges[signer] >= uint8(PrivilegeLevel.Transactions), 'PRIVILEGE_NOT_DOWNGRADED');\r\n\t\t}\r\n\t\tif (feeTokenAmount > 0) {\r\n\t\t\tSafeERC20.transfer(feeTokenAddr, msg.sender, feeTokenAmount);\r\n\t\t}\r\n\t}\r\n\r\n\tfunction executeRoutines(RoutineAuthorization memory auth, bytes32[3] memory signature, RoutineOperation[] memory operations)\r\n\t\tpublic\r\n\t{\r\n\t\trequire(auth.identityContract == address(this), 'AUTHORIZATION_NOT_FOR_CONTRACT');\r\n\t\trequire(auth.relayer == msg.sender, 'ONLY_RELAYER_CAN_CALL');\r\n\t\trequire(auth.validUntil >= now, 'AUTHORIZATION_EXPIRED');\r\n\t\tbytes32 hash = keccak256(abi.encode(auth));\r\n\t\taddress signer = SignatureValidator.recoverAddr(hash, signature);\r\n\t\trequire(privileges[signer] >= uint8(PrivilegeLevel.Routines), 'INSUFFICIENT_PRIVILEGE');\r\n\t\tuint len = operations.length;\r\n\t\tfor (uint i=0; i<len; i++) {\r\n\t\t\tRoutineOperation memory op = operations[i];\r\n\t\t\t// @TODO: is it possible to preserve original error from the call\r\n\t\t\tif (op.mode == 0) {\r\n\t\t\t\t// Channel: Withdraw\r\n\t\t\t\tbool success = executeCall(auth.outpace, 0, abi.encodePacked(CHANNEL_WITHDRAW_SELECTOR, op.data));\r\n\t\t\t\trequire(success, 'WITHDRAW_FAILED');\r\n\t\t\t} else if (op.mode == 1) {\r\n\t\t\t\t// Channel: Withdraw Expired\r\n\t\t\t\tbool success = executeCall(auth.outpace, 0, abi.encodePacked(CHANNEL_WITHDRAW_EXPIRED_SELECTOR, op.data));\r\n\t\t\t\trequire(success, 'WITHDRAW_EXPIRED_FAILED');\r\n\t\t\t} else if (op.mode == 2) {\r\n\t\t\t\t// Withdraw from identity\r\n\t\t\t\t(address tokenAddr, address to, uint amount) = abi.decode(op.data, (address, address, uint));\r\n\t\t\t\trequire(privileges[to] >= uint8(PrivilegeLevel.Withdraw), 'INSUFFICIENT_PRIVILEGE_WITHDRAW');\r\n\t\t\t\tSafeERC20.transfer(tokenAddr, to, amount);\r\n\t\t\t} else if (op.mode == 3) {\r\n\t\t\t\t// Channel: open\r\n\t\t\t\t(ChannelLibrary.Channel memory channel) = abi.decode(op.data, (ChannelLibrary.Channel));\r\n\t\t\t\t// Ensure all validators are whitelisted\r\n\t\t\t\tuint validatorsLen = channel.validators.length;\r\n\t\t\t\tfor (uint j=0; j<validatorsLen; j++) {\r\n\t\t\t\t\trequire(\r\n\t\t\t\t\t\tValidatorRegistry(registryAddr).whitelisted(channel.validators[j]),\r\n\t\t\t\t\t\t\"VALIDATOR_NOT_WHITELISTED\"\r\n\t\t\t\t\t);\r\n\t\t\t\t}\r\n\t\t\t\tbool success = executeCall(auth.outpace, 0, abi.encodePacked(CHANNEL_OPEN_SELECTOR, op.data));\r\n\t\t\t\trequire(success, 'OPEN_FAILED');\r\n\t\t\t} else {\r\n\t\t\t\trequire(false, 'INVALID_MODE');\r\n\t\t\t}\r\n\t\t}\r\n\t\tif (!routinePaidFees[hash] && auth.feeTokenAmount > 0) {\r\n\t\t\troutinePaidFees[hash] = true;\r\n\t\t\tSafeERC20.transfer(auth.feeTokenAddr, msg.sender, auth.feeTokenAmount);\r\n\t\t}\r\n\t}\r\n\r\n\t// we shouldn't use address.call(), cause: https://github.com/ethereum/solidity/issues/2884\r\n\t// copied from https://github.com/uport-project/uport-identity/blob/develop/contracts/Proxy.sol\r\n\t// there's also\r\n\t// https://github.com/gnosis/MultiSigWallet/commit/e1b25e8632ca28e9e9e09c81bd20bf33fdb405ce\r\n\t// https://github.com/austintgriffith/bouncer-proxy/blob/master/BouncerProxy/BouncerProxy.sol\r\n\t// https://github.com/gnosis/safe-contracts/blob/7e2eeb3328bb2ae85c36bc11ea6afc14baeb663c/contracts/base/Executor.sol\r\n\tfunction executeCall(address to, uint256 value, bytes memory data)\r\n\t\tinternal\r\n\t\treturns (bool success)\r\n\t{\r\n\t\tassembly {\r\n\t\t\tsuccess := call(gas, to, value, add(data, 0x20), mload(data), 0, 0)\r\n\t\t}\r\n\t}\r\n}\r\n",
  "sourcePath": "C:/git/adex-protocol-eth/contracts/extra/Identity.sol",
  "compiler": {
    "name": "solc",
    "version": "0.5.6+commit.b259423e.Emscripten.clang"
  },
  "schemaVersion": "3.0.5",
  "updatedAt": "2019-03-30T16:24:09.026Z",
  "devdoc": {
    "methods": {}
  },
  "userdoc": {
    "methods": {}
  }
}