{
  "contractName": "Identity",
  "abi": [
    {
      "constant": true,
      "inputs": [],
      "name": "registryAddr",
      "outputs": [
        {
          "name": "",
          "type": "address"
        }
      ],
      "payable": false,
      "stateMutability": "view",
      "type": "function"
    },
    {
      "constant": true,
      "inputs": [
        {
          "name": "",
          "type": "bytes32"
        }
      ],
      "name": "routinePaidFees",
      "outputs": [
        {
          "name": "",
          "type": "bool"
        }
      ],
      "payable": false,
      "stateMutability": "view",
      "type": "function"
    },
    {
      "constant": true,
      "inputs": [],
      "name": "nonce",
      "outputs": [
        {
          "name": "",
          "type": "uint256"
        }
      ],
      "payable": false,
      "stateMutability": "view",
      "type": "function"
    },
    {
      "constant": true,
      "inputs": [
        {
          "name": "",
          "type": "address"
        }
      ],
      "name": "privileges",
      "outputs": [
        {
          "name": "",
          "type": "uint8"
        }
      ],
      "payable": false,
      "stateMutability": "view",
      "type": "function"
    },
    {
      "inputs": [
        {
          "name": "feeTokenAddr",
          "type": "address"
        },
        {
          "name": "feeBeneficiery",
          "type": "address"
        },
        {
          "name": "feeTokenAmount",
          "type": "uint256"
        },
        {
          "name": "addrs",
          "type": "address[]"
        },
        {
          "name": "privLevels",
          "type": "uint8[]"
        },
        {
          "name": "regAddr",
          "type": "address"
        }
      ],
      "payable": false,
      "stateMutability": "nonpayable",
      "type": "constructor"
    },
    {
      "anonymous": false,
      "inputs": [
        {
          "indexed": true,
          "name": "addr",
          "type": "address"
        },
        {
          "indexed": false,
          "name": "privLevel",
          "type": "uint8"
        }
      ],
      "name": "LogPrivilegeChanged",
      "type": "event"
    },
    {
      "constant": false,
      "inputs": [
        {
          "name": "addr",
          "type": "address"
        },
        {
          "name": "privLevel",
          "type": "uint8"
        }
      ],
      "name": "setAddrPrivilege",
      "outputs": [],
      "payable": false,
      "stateMutability": "nonpayable",
      "type": "function"
    },
    {
      "constant": false,
      "inputs": [
        {
          "components": [
            {
              "name": "identityContract",
              "type": "address"
            },
            {
              "name": "nonce",
              "type": "uint256"
            },
            {
              "name": "feeTokenAddr",
              "type": "address"
            },
            {
              "name": "feeTokenAmount",
              "type": "uint256"
            },
            {
              "name": "to",
              "type": "address"
            },
            {
              "name": "value",
              "type": "uint256"
            },
            {
              "name": "data",
              "type": "bytes"
            }
          ],
          "name": "txns",
          "type": "tuple[]"
        },
        {
          "name": "signatures",
          "type": "bytes32[3][]"
        }
      ],
      "name": "execute",
      "outputs": [],
      "payable": false,
      "stateMutability": "nonpayable",
      "type": "function"
    },
    {
      "constant": false,
      "inputs": [
        {
          "components": [
            {
              "name": "identityContract",
              "type": "address"
            },
            {
              "name": "relayer",
              "type": "address"
            },
            {
              "name": "outpace",
              "type": "address"
            },
            {
              "name": "validUntil",
              "type": "uint256"
            },
            {
              "name": "feeTokenAddr",
              "type": "address"
            },
            {
              "name": "feeTokenAmount",
              "type": "uint256"
            }
          ],
          "name": "auth",
          "type": "tuple"
        },
        {
          "name": "signature",
          "type": "bytes32[3]"
        },
        {
          "components": [
            {
              "name": "mode",
              "type": "uint256"
            },
            {
              "name": "data",
              "type": "bytes"
            }
          ],
          "name": "operations",
          "type": "tuple[]"
        }
      ],
      "name": "executeRoutines",
      "outputs": [],
      "payable": false,
      "stateMutability": "nonpayable",
      "type": "function"
    }
  ],
  "bytecode": "0x6080604052600073ffffffffffffffffffffffffffffffffffffffff1663ed66d85790507c0100000000000000000000000000000000000000000000000000000000026000806101000a81548163ffffffff02191690837c010000000000000000000000000000000000000000000000000000000090040217905550600073ffffffffffffffffffffffffffffffffffffffff1663ef3600be90507c010000000000000000000000000000000000000000000000000000000002600060046101000a81548163ffffffff02191690837c010000000000000000000000000000000000000000000000000000000090040217905550600073ffffffffffffffffffffffffffffffffffffffff16637e881aab90507c010000000000000000000000000000000000000000000000000000000002600060086101000a81548163ffffffff02191690837c01000000000000000000000000000000000000000000000000000000009004021790555060006001553480156200017d57600080fd5b5060405162003029380380620030298339810180604052620001a391908101906200058c565b80600460006101000a81548173ffffffffffffffffffffffffffffffffffffffff021916908373ffffffffffffffffffffffffffffffffffffffff16021790555060008251905060008090505b81811015620002ff578381815181106200020657fe5b6020026020010151600260008784815181106200021f57fe5b602002602001015173ffffffffffffffffffffffffffffffffffffffff1673ffffffffffffffffffffffffffffffffffffffff16815260200190815260200160002060006101000a81548160ff021916908360ff1602179055508481815181106200028657fe5b602002602001015173ffffffffffffffffffffffffffffffffffffffff167f9685487d203e6d23591605e642082a4c0b3e0b18fa34bafa9ee7ed77e135faac858381518110620002d257fe5b6020026020010151604051620002e99190620006b4565b60405180910390a28080600101915050620001f0565b5060008511156200032c576200032b878787620003396401000000000262001071176401000000009004565b5b50505050505050620007e7565b8273ffffffffffffffffffffffffffffffffffffffff1663a9059cbb83836040518363ffffffff167c01000000000000000000000000000000000000000000000000000000000281526004016200039292919062000687565b600060405180830381600087803b158015620003ad57600080fd5b505af1158015620003c2573d6000803e3d6000fd5b50505050620003df620003ee640100000000026401000000009004565b620003e957600080fd5b505050565b600080600090503d600081146200040e5760208114620004185762000424565b6001915062000424565b60206000803e60005191505b50600081141591505090565b60006200043e82516200079c565b905092915050565b600082601f8301126200045857600080fd5b81516200046f6200046982620006ff565b620006d1565b915081818352602084019350602081019050838560208402820111156200049557600080fd5b60005b83811015620004c95781620004ae888262000430565b84526020840193506020830192505060018101905062000498565b5050505092915050565b600082601f830112620004e557600080fd5b8151620004fc620004f68262000728565b620006d1565b915081818352602084019350602081019050838560208402820111156200052257600080fd5b60005b838110156200055657816200053b888262000576565b84526020840193506020830192505060018101905062000525565b5050505092915050565b60006200056e8251620007d0565b905092915050565b6000620005848251620007da565b905092915050565b60008060008060008060c08789031215620005a657600080fd5b6000620005b689828a0162000430565b9650506020620005c989828a0162000430565b9550506040620005dc89828a0162000560565b945050606087015167ffffffffffffffff811115620005fa57600080fd5b6200060889828a0162000446565b935050608087015167ffffffffffffffff8111156200062657600080fd5b6200063489828a01620004d3565b92505060a06200064789828a0162000430565b9150509295509295509295565b6200065f8162000751565b82525050565b620006708162000785565b82525050565b62000681816200078f565b82525050565b60006040820190506200069e600083018562000654565b620006ad602083018462000665565b9392505050565b6000602082019050620006cb600083018462000676565b92915050565b6000604051905081810181811067ffffffffffffffff82111715620006f557600080fd5b8060405250919050565b600067ffffffffffffffff8211156200071757600080fd5b602082029050602081019050919050565b600067ffffffffffffffff8211156200074057600080fd5b602082029050602081019050919050565b60006200075e8262000765565b9050919050565b600073ffffffffffffffffffffffffffffffffffffffff82169050919050565b6000819050919050565b600060ff82169050919050565b6000620007a982620007b0565b9050919050565b600073ffffffffffffffffffffffffffffffffffffffff82169050919050565b6000819050919050565b600060ff82169050919050565b61283280620007f76000396000f3fe608060405234801561001057600080fd5b506004361061009a576000357c010000000000000000000000000000000000000000000000000000000090048063a6e6b44611610078578063a6e6b446146100f5578063affed0e014610125578063c066a5b114610143578063e9c90ddc146101735761009a565b806346c3d5221461009f57806351da2eaa146100bb578063951a02af146100d9575b600080fd5b6100b960048036036100b4919081019061191e565b61018f565b005b6100c36102a7565b6040516100d091906121ca565b60405180910390f35b6100f360048036036100ee919081019061195a565b6102cd565b005b61010f600480360361010a91908101906119ef565b610619565b60405161011c9190612284565b60405180910390f35b61012d610639565b60405161013a91906124df565b60405180910390f35b61015d600480360361015891908101906118a6565b61063f565b60405161016a91906124fa565b60405180910390f35b61018d60048036036101889190810190611a59565b61065f565b005b3073ffffffffffffffffffffffffffffffffffffffff163373ffffffffffffffffffffffffffffffffffffffff16146101fd576040517f08c379a00000000000000000000000000000000000000000000000000000000081526004016101f490612404565b60405180910390fd5b80600260008473ffffffffffffffffffffffffffffffffffffffff1673ffffffffffffffffffffffffffffffffffffffff16815260200190815260200160002060006101000a81548160ff021916908360ff1602179055508173ffffffffffffffffffffffffffffffffffffffff167f9685487d203e6d23591605e642082a4c0b3e0b18fa34bafa9ee7ed77e135faac8260405161029b91906124fa565b60405180910390a25050565b600460009054906101000a900473ffffffffffffffffffffffffffffffffffffffff1681565b6000826000815181106102dc57fe5b6020026020010151604001519050600080905060008451905060008090505b818110156105fc5761030b61114e565b86828151811061031757fe5b602002602001015190503073ffffffffffffffffffffffffffffffffffffffff16816000015173ffffffffffffffffffffffffffffffffffffffff1614610393576040517f08c379a000000000000000000000000000000000000000000000000000000000815260040161038a906122e4565b60405180910390fd5b8473ffffffffffffffffffffffffffffffffffffffff16816040015173ffffffffffffffffffffffffffffffffffffffff1614610405576040517f08c379a00000000000000000000000000000000000000000000000000000000081526004016103fc906124a4565b60405180910390fd5b60015481602001511461044d576040517f08c379a000000000000000000000000000000000000000000000000000000000815260040161044490612324565b60405180910390fd5b6000816000015182602001518360400151846060015185608001518660a001518760c00151604051602001610488979695949392919061220e565b60405160208183030381529060405280519060200120905060006104bf828986815181106104b257fe5b6020026020010151610dd5565b9050600260038111156104ce57fe5b60ff16600260008373ffffffffffffffffffffffffffffffffffffffff1673ffffffffffffffffffffffffffffffffffffffff16815260200190815260200160002060009054906101000a900460ff1660ff161015610562576040517f08c379a000000000000000000000000000000000000000000000000000000000815260040161055990612304565b60405180910390fd5b6105776001805461103d90919063ffffffff16565b60018190555061059483606001518761103d90919063ffffffff16565b95506105ad83608001518460a001518560c00151611059565b6105ec576040517f08c379a00000000000000000000000000000000000000000000000000000000081526004016105e390612484565b60405180910390fd5b50505080806001019150506102fb565b50600082111561061257610611833384611071565b5b5050505050565b60036020528060005260406000206000915054906101000a900460ff1681565b60015481565b60026020528060005260406000206000915054906101000a900460ff1681565b3073ffffffffffffffffffffffffffffffffffffffff16836000015173ffffffffffffffffffffffffffffffffffffffff16146106d1576040517f08c379a00000000000000000000000000000000000000000000000000000000081526004016106c890612464565b60405180910390fd5b3373ffffffffffffffffffffffffffffffffffffffff16836020015173ffffffffffffffffffffffffffffffffffffffff1614610743576040517f08c379a000000000000000000000000000000000000000000000000000000000815260040161073a90612364565b60405180910390fd5b428360600151101561078a576040517f08c379a0000000000000000000000000000000000000000000000000000000008152600401610781906123c4565b60405180910390fd5b60008360405160200161079d91906124c4565b60405160208183030381529060405280519060200120905060006107c18285610dd5565b9050600160038111156107d057fe5b60ff16600260008373ffffffffffffffffffffffffffffffffffffffff1673ffffffffffffffffffffffffffffffffffffffff16815260200190815260200160002060009054906101000a900460ff1660ff161015610864576040517f08c379a000000000000000000000000000000000000000000000000000000000815260040161085b90612304565b60405180910390fd5b60008351905060008090505b81811015610d55576108806111cd565b85828151811061088c57fe5b6020026020010151905060008160000151141561094c576000610904896040015160008060009054906101000a90047c01000000000000000000000000000000000000000000000000000000000285602001516040516020016108f0929190612130565b604051602081830303815290604052611059565b905080610946576040517f08c379a000000000000000000000000000000000000000000000000000000000815260040161093d90612384565b60405180910390fd5b50610d47565b600181600001511415610a025760006109ba896040015160008060049054906101000a90047c01000000000000000000000000000000000000000000000000000000000285602001516040516020016109a6929190612130565b604051602081830303815290604052611059565b9050806109fc576040517f08c379a00000000000000000000000000000000000000000000000000000000081526004016109f390612344565b60405180910390fd5b50610d46565b600281600001511415610ae55760008060008360200151806020019051610a2c91908101906118cf565b925092509250600380811115610a3e57fe5b60ff16600260008473ffffffffffffffffffffffffffffffffffffffff1673ffffffffffffffffffffffffffffffffffffffff16815260200190815260200160002060009054906101000a900460ff1660ff161015610ad2576040517f08c379a0000000000000000000000000000000000000000000000000000000008152600401610ac990612444565b60405180910390fd5b610add838383611071565b505050610d45565b600381600001511415610d0257610afa6111e7565b8160200151806020019051610b129190810190611a18565b90506000816080015151905060008090505b81811015610c5657600460009054906101000a900473ffffffffffffffffffffffffffffffffffffffff1673ffffffffffffffffffffffffffffffffffffffff1663d936547e84608001518381518110610b7a57fe5b60200260200101516040518263ffffffff167c0100000000000000000000000000000000000000000000000000000000028152600401610bba91906121ca565b60206040518083038186803b158015610bd257600080fd5b505afa158015610be6573d6000803e3d6000fd5b505050506040513d601f19601f82011682018060405250610c0a91908101906119c6565b610c49576040517f08c379a0000000000000000000000000000000000000000000000000000000008152600401610c4090612424565b60405180910390fd5b8080600101915050610b24565b506000610cb88b6040015160008060089054906101000a90047c0100000000000000000000000000000000000000000000000000000000028760200151604051602001610ca4929190612130565b604051602081830303815290604052611059565b905080610cfa576040517f08c379a0000000000000000000000000000000000000000000000000000000008152600401610cf1906123e4565b60405180910390fd5b505050610d44565b6000610d43576040517f08c379a0000000000000000000000000000000000000000000000000000000008152600401610d3a906123a4565b60405180910390fd5b5b5b5b5b508080600101915050610870565b506003600084815260200190815260200160002060009054906101000a900460ff16158015610d88575060008660a00151115b15610dcd5760016003600085815260200190815260200160002060006101000a81548160ff021916908315150217905550610dcc8660800151338860a00151611071565b5b505050505050565b60008082600060038110610de557fe5b6020020151600060208110610df657fe5b1a7f0100000000000000000000000000000000000000000000000000000000000000027f0100000000000000000000000000000000000000000000000000000000000000900460ff166004811115610e4a57fe5b905060006004811115610e5957fe5b816004811115610e6557fe5b1415610e75576000915050611037565b600083600060038110610e8457fe5b6020020151600160208110610e9557fe5b1a7f0100000000000000000000000000000000000000000000000000000000000000027f01000000000000000000000000000000000000000000000000000000000000009004905060026004811115610eea57fe5b826004811115610ef657fe5b1415610f2a5784604051602001610f0d9190612158565b604051602081830303815290604052805190602001209450610fc1565b60036004811115610f3757fe5b826004811115610f4357fe5b1415610f775784604051602001610f5a91906121a4565b604051602081830303815290604052805190602001209450610fc0565b600480811115610f8357fe5b826004811115610f8f57fe5b1415610fbf5784604051602001610fa6919061217e565b6040516020818303038152906040528051906020012094505b5b5b6001858286600160038110610fd257fe5b602002015187600260038110610fe457fe5b602002015160405160008152602001604052604051611006949392919061229f565b6020604051602081039080840390855afa158015611028573d6000803e3d6000fd5b50505060206040510351925050505b92915050565b60008082840190508381101561104f57fe5b8091505092915050565b600080600083516020850186885af190509392505050565b8273ffffffffffffffffffffffffffffffffffffffff1663a9059cbb83836040518363ffffffff167c01000000000000000000000000000000000000000000000000000000000281526004016110c89291906121e5565b600060405180830381600087803b1580156110e257600080fd5b505af11580156110f6573d6000803e3d6000fd5b50505050611102611110565b61110b57600080fd5b505050565b600080600090503d6000811461112d576020811461113657611142565b60019150611142565b60206000803e60005191505b50600081141591505090565b6040518060e00160405280600073ffffffffffffffffffffffffffffffffffffffff16815260200160008152602001600073ffffffffffffffffffffffffffffffffffffffff16815260200160008152602001600073ffffffffffffffffffffffffffffffffffffffff16815260200160008152602001606081525090565b604051806040016040528060008152602001606081525090565b6040518060c00160405280600073ffffffffffffffffffffffffffffffffffffffff168152602001600073ffffffffffffffffffffffffffffffffffffffff168152602001600081526020016000815260200160608152602001600080191681525090565b60006112588235612720565b905092915050565b600061126c8251612720565b905092915050565b60006112808251612732565b905092915050565b600082601f83011261129957600080fd5b81516112ac6112a782612542565b612515565b915081818352602084019350602081019050838560208402820111156112d157600080fd5b60005b8381101561130157816112e78882611260565b8452602084019350602083019250506001810190506112d4565b5050505092915050565b600082601f83011261131c57600080fd5b813561132f61132a8261256a565b612515565b9150818183526020840193506020810190508385606084028201111561135457600080fd5b60005b83811015611384578161136a888261138e565b845260208401935060608301925050600181019050611357565b5050505092915050565b600082601f83011261139f57600080fd5b60036113b26113ad82612592565b612515565b915081838560208402820111156113c857600080fd5b60005b838110156113f857816113de8882611572565b8452602084019350602083019250506001810190506113cb565b5050505092915050565b600082601f83011261141357600080fd5b6003611426611421826125b4565b612515565b9150818385602084028201111561143c57600080fd5b60005b8381101561146c57816114528882611572565b84526020840193506020830192505060018101905061143f565b5050505092915050565b600082601f83011261148757600080fd5b813561149a611495826125d6565b612515565b9150818183526020840193506020810190508360005b838110156114e057813586016114c6888261173e565b8452602084019350602083019250506001810190506114b0565b5050505092915050565b600082601f8301126114fb57600080fd5b813561150e611509826125fe565b612515565b9150818183526020840193506020810190508360005b83811015611554578135860161153a88826117a2565b845260208401935060208301925050600181019050611524565b5050505092915050565b600061156a8251612744565b905092915050565b600061157e8235612750565b905092915050565b60006115928251612750565b905092915050565b600082601f8301126115ab57600080fd5b81356115be6115b982612626565b612515565b915080825260208301602083018583830111156115da57600080fd5b6115e5838284612791565b50505092915050565b600060c0828403121561160057600080fd5b61160a60c0612515565b9050600061161a84828501611260565b600083015250602061162e84828501611260565b60208301525060406116428482850161187e565b60408301525060606116568482850161187e565b606083015250608082015167ffffffffffffffff81111561167657600080fd5b61168284828501611288565b60808301525060a061169684828501611586565b60a08301525092915050565b600060c082840312156116b457600080fd5b6116be60c0612515565b905060006116ce8482850161124c565b60008301525060206116e28482850161124c565b60208301525060406116f68482850161124c565b604083015250606061170a8482850161186a565b606083015250608061171e8482850161124c565b60808301525060a06117328482850161186a565b60a08301525092915050565b60006040828403121561175057600080fd5b61175a6040612515565b9050600061176a8482850161186a565b600083015250602082013567ffffffffffffffff81111561178a57600080fd5b6117968482850161159a565b60208301525092915050565b600060e082840312156117b457600080fd5b6117be60e0612515565b905060006117ce8482850161124c565b60008301525060206117e28482850161186a565b60208301525060406117f68482850161124c565b604083015250606061180a8482850161186a565b606083015250608061181e8482850161124c565b60808301525060a06118328482850161186a565b60a08301525060c082013567ffffffffffffffff81111561185257600080fd5b61185e8482850161159a565b60c08301525092915050565b6000611876823561277a565b905092915050565b600061188a825161277a565b905092915050565b600061189e8235612784565b905092915050565b6000602082840312156118b857600080fd5b60006118c68482850161124c565b91505092915050565b6000806000606084860312156118e457600080fd5b60006118f286828701611274565b935050602061190386828701611274565b92505060406119148682870161187e565b9150509250925092565b6000806040838503121561193157600080fd5b600061193f8582860161124c565b925050602061195085828601611892565b9150509250929050565b6000806040838503121561196d57600080fd5b600083013567ffffffffffffffff81111561198757600080fd5b611993858286016114ea565b925050602083013567ffffffffffffffff8111156119b057600080fd5b6119bc8582860161130b565b9150509250929050565b6000602082840312156119d857600080fd5b60006119e68482850161155e565b91505092915050565b600060208284031215611a0157600080fd5b6000611a0f84828501611572565b91505092915050565b600060208284031215611a2a57600080fd5b600082015167ffffffffffffffff811115611a4457600080fd5b611a50848285016115ee565b91505092915050565b60008060006101408486031215611a6f57600080fd5b6000611a7d868287016116a2565b93505060c0611a8e86828701611402565b92505061012084013567ffffffffffffffff811115611aac57600080fd5b611ab886828701611476565b9150509250925092565b611acb81612695565b82525050565b611ada81612695565b82525050565b611ae9816126a7565b82525050565b611af8816126b3565b82525050565b611b0f611b0a826126b3565b6127d3565b82525050565b611b26611b21826126bd565b6127dd565b82525050565b6000611b3782612652565b611b41818561265d565b9350611b518185602086016127a0565b611b5a816127e7565b840191505092915050565b6000611b7082612652565b611b7a818561266e565b9350611b8a8185602086016127a0565b80840191505092915050565b6000611ba3601c83612679565b91507f5452414e53414354494f4e5f4e4f545f464f525f434f4e5452414354000000006000830152602082019050919050565b6000611be3601c8361268a565b91507f19457468657265756d205369676e6564204d6573736167653a0a3332000000006000830152601c82019050919050565b6000611c23601683612679565b91507f494e53554646494349454e545f50524956494c454745000000000000000000006000830152602082019050919050565b6000611c63600b83612679565b91507f57524f4e475f4e4f4e43450000000000000000000000000000000000000000006000830152602082019050919050565b6000611ca3601783612679565b91507f57495448445241575f455850495245445f4641494c45440000000000000000006000830152602082019050919050565b6000611ce3601583612679565b91507f4f4e4c595f52454c415945525f43414e5f43414c4c00000000000000000000006000830152602082019050919050565b6000611d23600f83612679565b91507f57495448445241575f4641494c454400000000000000000000000000000000006000830152602082019050919050565b6000611d63600c83612679565b91507f494e56414c49445f4d4f444500000000000000000000000000000000000000006000830152602082019050919050565b6000611da3601583612679565b91507f415554484f52495a4154494f4e5f4558504952454400000000000000000000006000830152602082019050919050565b6000611de360698361268a565b91507f19457468657265756d205369676e6564204d6573736167653a0a31303842792060008301527f7369676e696e672074686973206d6573736167652c20796f752061636b6e6f7760208301527f6c65646765207369676e696e6720616e2041644578206269642077697468207460408301527f686520686173683a0a00000000000000000000000000000000000000000000006060830152606982019050919050565b6000611e95600b83612679565b91507f4f50454e5f4641494c45440000000000000000000000000000000000000000006000830152602082019050919050565b6000611ed5601683612679565b91507f4f4e4c595f4944454e544954595f43414e5f43414c4c000000000000000000006000830152602082019050919050565b6000611f15601983612679565b91507f56414c494441544f525f4e4f545f57484954454c4953544544000000000000006000830152602082019050919050565b6000611f55601f83612679565b91507f494e53554646494349454e545f50524956494c4547455f5749544844524157006000830152602082019050919050565b6000611f95601b8361268a565b91507f19457468657265756d205369676e6564204d6573736167653a0a2000000000006000830152601b82019050919050565b6000611fd5601e83612679565b91507f415554484f52495a4154494f4e5f4e4f545f464f525f434f4e545241435400006000830152602082019050919050565b6000612015600b83612679565b91507f43414c4c5f4641494c45440000000000000000000000000000000000000000006000830152602082019050919050565b6000612055601a83612679565b91507f455845435554455f4e454544535f53494e474c455f544f4b454e0000000000006000830152602082019050919050565b60c08201600082015161209e6000850182611ac2565b5060208201516120b16020850182611ac2565b5060408201516120c46040850182611ac2565b5060608201516120d76060850182612103565b5060808201516120ea6080850182611ac2565b5060a08201516120fd60a0850182612103565b50505050565b61210c81612709565b82525050565b61211b81612709565b82525050565b61212a81612713565b82525050565b600061213c8285611b15565b60048201915061214c8284611b65565b91508190509392505050565b600061216382611bd6565b915061216f8284611afe565b60208201915081905092915050565b600061218982611dd6565b91506121958284611afe565b60208201915081905092915050565b60006121af82611f88565b91506121bb8284611afe565b60208201915081905092915050565b60006020820190506121df6000830184611ad1565b92915050565b60006040820190506121fa6000830185611ad1565b6122076020830184612112565b9392505050565b600060e082019050612223600083018a611ad1565b6122306020830189612112565b61223d6040830188611ad1565b61224a6060830187612112565b6122576080830186611ad1565b61226460a0830185612112565b81810360c08301526122768184611b2c565b905098975050505050505050565b60006020820190506122996000830184611ae0565b92915050565b60006080820190506122b46000830187611aef565b6122c16020830186612121565b6122ce6040830185611aef565b6122db6060830184611aef565b95945050505050565b600060208201905081810360008301526122fd81611b96565b9050919050565b6000602082019050818103600083015261231d81611c16565b9050919050565b6000602082019050818103600083015261233d81611c56565b9050919050565b6000602082019050818103600083015261235d81611c96565b9050919050565b6000602082019050818103600083015261237d81611cd6565b9050919050565b6000602082019050818103600083015261239d81611d16565b9050919050565b600060208201905081810360008301526123bd81611d56565b9050919050565b600060208201905081810360008301526123dd81611d96565b9050919050565b600060208201905081810360008301526123fd81611e88565b9050919050565b6000602082019050818103600083015261241d81611ec8565b9050919050565b6000602082019050818103600083015261243d81611f08565b9050919050565b6000602082019050818103600083015261245d81611f48565b9050919050565b6000602082019050818103600083015261247d81611fc8565b9050919050565b6000602082019050818103600083015261249d81612008565b9050919050565b600060208201905081810360008301526124bd81612048565b9050919050565b600060c0820190506124d96000830184612088565b92915050565b60006020820190506124f46000830184612112565b92915050565b600060208201905061250f6000830184612121565b92915050565b6000604051905081810181811067ffffffffffffffff8211171561253857600080fd5b8060405250919050565b600067ffffffffffffffff82111561255957600080fd5b602082029050602081019050919050565b600067ffffffffffffffff82111561258157600080fd5b602082029050602081019050919050565b600067ffffffffffffffff8211156125a957600080fd5b602082029050919050565b600067ffffffffffffffff8211156125cb57600080fd5b602082029050919050565b600067ffffffffffffffff8211156125ed57600080fd5b602082029050602081019050919050565b600067ffffffffffffffff82111561261557600080fd5b602082029050602081019050919050565b600067ffffffffffffffff82111561263d57600080fd5b601f19601f8301169050602081019050919050565b600081519050919050565b600082825260208201905092915050565b600081905092915050565b600082825260208201905092915050565b600081905092915050565b60006126a0826126e9565b9050919050565b60008115159050919050565b6000819050919050565b60007fffffffff0000000000000000000000000000000000000000000000000000000082169050919050565b600073ffffffffffffffffffffffffffffffffffffffff82169050919050565b6000819050919050565b600060ff82169050919050565b600061272b8261275a565b9050919050565b600061273d8261275a565b9050919050565b60008115159050919050565b6000819050919050565b600073ffffffffffffffffffffffffffffffffffffffff82169050919050565b6000819050919050565b600060ff82169050919050565b82818337600083830152505050565b60005b838110156127be5780820151818401526020810190506127a3565b838111156127cd576000848401525b50505050565b6000819050919050565b6000819050919050565b6000601f19601f830116905091905056fea265627a7a723058201858badb936338bee2330c502cf4e27a0e94df796be6e35682a393f133f492e56c6578706572696d656e74616cf50037",
  "source": "pragma solidity ^0.5.6;\r\npragma experimental ABIEncoderV2;\r\n\r\nimport \"../libs/SafeMath.sol\";\r\nimport \"../libs/SafeERC20.sol\";\r\nimport \"../libs/SignatureValidator.sol\";\r\nimport \"../AdExCore.sol\";\r\nimport \"../libs/ChannelLibrary.sol\";\r\n\r\ncontract ValidatorRegistry {\r\n\t// The contract will probably just use a mapping, but this is a generic interface\r\n\tfunction whitelisted(address) view external returns (bool);\r\n}\r\n\r\ncontract Identity {\r\n\tusing SafeMath for uint;\r\n\r\n\t// Constants\r\n\tbytes4 private CHANNEL_WITHDRAW_SELECTOR = AdExCore(0x0).channelWithdraw.selector;\r\n\tbytes4 private CHANNEL_WITHDRAW_EXPIRED_SELECTOR = AdExCore(0x0).channelWithdrawExpired.selector;\r\n\tbytes4 private CHANNEL_OPEN_SELECTOR = AdExCore(0x0).channelOpen.selector;\r\n\r\n\t// The next allowed nonce\r\n\tuint public nonce = 0;\r\n\tmapping (address => uint8) public privileges;\r\n\t// Routine operations are authorized at once for a period, fee is paid once\r\n\tmapping (bytes32 => bool) public routinePaidFees;\r\n\taddress public registryAddr;\r\n\r\n\tenum PrivilegeLevel {\r\n\t\tNone,\r\n\t\tRoutines,\r\n\t\tTransactions,\r\n\t\tWithdraw\r\n\t}\r\n\r\n\t// Events\r\n\tevent LogPrivilegeChanged(address indexed addr, uint8 privLevel);\r\n\r\n\t// Transaction structure\r\n\t// Those can be executed by keys with >= PrivilegeLevel.Transactions\r\n\t// Even though the contract cannot receive ETH, we are able to send ETH (.value), cause ETH might've been sent to the contract address before it's deployed\r\n\tstruct Transaction {\r\n\t\t// replay protection\r\n\t\taddress identityContract;\r\n\t\tuint nonce;\r\n\t\t// tx fee, in tokens\r\n\t\taddress feeTokenAddr;\r\n\t\tuint feeTokenAmount;\r\n\t\t// all the regular txn data\r\n\t\taddress to;\r\n\t\tuint value;\r\n\t\tbytes data;\r\n\t}\r\n\r\n\t// RoutineAuthorizations allow the user to authorize (via keys >= PrivilegeLevel.Routines) a particular relayer to do any number of routines\r\n\t// those routines are safe: e.g. withdrawing channels to the identity, or from the identity to the pre-approved withdraw (>= PrivilegeLevel.Withdraw) address\r\n\t// while the fee will be paid only ONCE per auth, the authorization can be used until validUntil\r\n\t// while the routines are safe, there is some level of implied trust as the relayer may run executeRoutines without any routines to claim the fee\r\n\tstruct RoutineAuthorization {\r\n\t\taddress identityContract;\r\n\t\taddress relayer;\r\n\t\taddress outpace;\r\n\t\tuint validUntil;\r\n\t\taddress feeTokenAddr;\r\n\t\tuint feeTokenAmount;\r\n\t}\r\n\tstruct RoutineOperation {\r\n\t\tuint mode;\r\n\t\tbytes data;\r\n\t}\r\n\r\n\tconstructor(address feeTokenAddr, address feeBeneficiery, uint feeTokenAmount, address[] memory addrs, uint8[] memory privLevels, address regAddr)\r\n\t\tpublic\r\n\t{\r\n\t\tregistryAddr = regAddr;\r\n\t\tuint len = privLevels.length;\r\n\t\tfor (uint i=0; i<len; i++) {\r\n\t\t\tprivileges[addrs[i]] = privLevels[i];\r\n\t\t\temit LogPrivilegeChanged(addrs[i], privLevels[i]);\r\n\t\t}\r\n\t\tif (feeTokenAmount > 0) {\r\n\t\t\tSafeERC20.transfer(feeTokenAddr, feeBeneficiery, feeTokenAmount);\r\n\t\t}\r\n\t}\r\n\r\n\tfunction setAddrPrivilege(address addr, uint8 privLevel)\r\n\t\texternal\r\n\t{\r\n\t\trequire(msg.sender == address(this), 'ONLY_IDENTITY_CAN_CALL');\r\n\t\t// @TODO: should we have on-chain anti-bricking guarantees? maybe there's an easy way to do this\r\n\t\t// since this can only be invoked by PrivilegeLevels.Transaction, maybe if we make sure we can't invoke setAddrPrivilege(addr, level) where addr == signer, it may be sufficient\r\n\t\tprivileges[addr] = privLevel;\r\n\t\temit LogPrivilegeChanged(addr, privLevel);\r\n\t}\r\n\r\n\tfunction execute(Transaction[] memory txns, bytes32[3][] memory signatures)\r\n\t\tpublic\r\n\t{\r\n\t\taddress feeTokenAddr = txns[0].feeTokenAddr;\r\n\t\tuint feeTokenAmount = 0;\r\n\t\tuint len = txns.length;\r\n\t\tfor (uint i=0; i<len; i++) {\r\n\t\t\tTransaction memory txn = txns[i];\r\n\t\t\trequire(txn.identityContract == address(this), 'TRANSACTION_NOT_FOR_CONTRACT');\r\n\t\t\trequire(txn.feeTokenAddr == feeTokenAddr, 'EXECUTE_NEEDS_SINGLE_TOKEN');\r\n\t\t\trequire(txn.nonce == nonce, 'WRONG_NONCE');\r\n\t\t\t// If we use the naive abi.encode(txn) and have a field of type `bytes`,\r\n\t\t\t// there is a discrepancy between ethereumjs-abi and solidity\r\n\t\t\t// if we enter every field individually, in order, there is no discrepancy\r\n\t\t\t//bytes32 hash = keccak256(abi.encode(txn));\r\n\t\t\tbytes32 hash = keccak256(abi.encode(txn.identityContract, txn.nonce, txn.feeTokenAddr, txn.feeTokenAmount, txn.to, txn.value, txn.data));\r\n\t\t\taddress signer = SignatureValidator.recoverAddr(hash, signatures[i]);\r\n\r\n\t\t\trequire(privileges[signer] >= uint8(PrivilegeLevel.Transactions), 'INSUFFICIENT_PRIVILEGE');\r\n\r\n\t\t\tnonce = nonce.add(1);\r\n\t\t\tfeeTokenAmount = feeTokenAmount.add(txn.feeTokenAmount);\r\n\r\n\t\t\trequire(executeCall(txn.to, txn.value, txn.data), 'CALL_FAILED');\r\n\t\t}\r\n\t\tif (feeTokenAmount > 0) {\r\n\t\t\tSafeERC20.transfer(feeTokenAddr, msg.sender, feeTokenAmount);\r\n\t\t}\r\n\t}\r\n\r\n\tfunction executeRoutines(RoutineAuthorization memory auth, bytes32[3] memory signature, RoutineOperation[] memory operations)\r\n\t\tpublic\r\n\t{\r\n\t\trequire(auth.identityContract == address(this), 'AUTHORIZATION_NOT_FOR_CONTRACT');\r\n\t\trequire(auth.relayer == msg.sender, 'ONLY_RELAYER_CAN_CALL');\r\n\t\trequire(auth.validUntil >= now, 'AUTHORIZATION_EXPIRED');\r\n\t\tbytes32 hash = keccak256(abi.encode(auth));\r\n\t\taddress signer = SignatureValidator.recoverAddr(hash, signature);\r\n\t\trequire(privileges[signer] >= uint8(PrivilegeLevel.Routines), 'INSUFFICIENT_PRIVILEGE');\r\n\t\tuint len = operations.length;\r\n\t\tfor (uint i=0; i<len; i++) {\r\n\t\t\tRoutineOperation memory op = operations[i];\r\n\t\t\t// @TODO: is it possible to preserve original error from the call\r\n\t\t\tif (op.mode == 0) {\r\n\t\t\t\t// Channel: Withdraw\r\n\t\t\t\tbool success = executeCall(auth.outpace, 0, abi.encodePacked(CHANNEL_WITHDRAW_SELECTOR, op.data));\r\n\t\t\t\trequire(success, 'WITHDRAW_FAILED');\r\n\t\t\t} else if (op.mode == 1) {\r\n\t\t\t\t// Channel: Withdraw Expired\r\n\t\t\t\tbool success = executeCall(auth.outpace, 0, abi.encodePacked(CHANNEL_WITHDRAW_EXPIRED_SELECTOR, op.data));\r\n\t\t\t\trequire(success, 'WITHDRAW_EXPIRED_FAILED');\r\n\t\t\t} else if (op.mode == 2) {\r\n\t\t\t\t// Withdraw from identity\r\n\t\t\t\t(address tokenAddr, address to, uint amount) = abi.decode(op.data, (address, address, uint));\r\n\t\t\t\trequire(privileges[to] >= uint8(PrivilegeLevel.Withdraw), 'INSUFFICIENT_PRIVILEGE_WITHDRAW');\r\n\t\t\t\tSafeERC20.transfer(tokenAddr, to, amount);\r\n\t\t\t} else if (op.mode == 3) {\r\n\t\t\t\t// Channel: open\r\n\t\t\t\t(ChannelLibrary.Channel memory channel) = abi.decode(op.data, (ChannelLibrary.Channel));\r\n\t\t\t\t// Ensure all validators are whitelisted\r\n\t\t\t\tuint validatorsLen = channel.validators.length;\r\n\t\t\t\tfor (uint j=0; j<validatorsLen; j++) {\r\n\t\t\t\t\trequire(\r\n\t\t\t\t\t\tValidatorRegistry(registryAddr).whitelisted(channel.validators[j]),\r\n\t\t\t\t\t\t\"VALIDATOR_NOT_WHITELISTED\"\r\n\t\t\t\t\t);\r\n\t\t\t\t}\r\n\t\t\t\tbool success = executeCall(auth.outpace, 0, abi.encodePacked(CHANNEL_OPEN_SELECTOR, op.data));\r\n\t\t\t\trequire(success, 'OPEN_FAILED');\r\n\t\t\t} else {\r\n\t\t\t\trequire(false, 'INVALID_MODE');\r\n\t\t\t}\r\n\t\t}\r\n\t\tif (!routinePaidFees[hash] && auth.feeTokenAmount > 0) {\r\n\t\t\troutinePaidFees[hash] = true;\r\n\t\t\tSafeERC20.transfer(auth.feeTokenAddr, msg.sender, auth.feeTokenAmount);\r\n\t\t}\r\n\t}\r\n\r\n\t// we shouldn't use address.call(), cause: https://github.com/ethereum/solidity/issues/2884\r\n\t// copied from https://github.com/uport-project/uport-identity/blob/develop/contracts/Proxy.sol\r\n\t// there's also\r\n\t// https://github.com/gnosis/MultiSigWallet/commit/e1b25e8632ca28e9e9e09c81bd20bf33fdb405ce\r\n\t// https://github.com/austintgriffith/bouncer-proxy/blob/master/BouncerProxy/BouncerProxy.sol\r\n\t// https://github.com/gnosis/safe-contracts/blob/7e2eeb3328bb2ae85c36bc11ea6afc14baeb663c/contracts/base/Executor.sol\r\n\tfunction executeCall(address to, uint256 value, bytes memory data)\r\n\t\tinternal\r\n\t\treturns (bool success)\r\n\t{\r\n\t\tassembly {\r\n\t\t\tsuccess := call(gas, to, value, add(data, 0x20), mload(data), 0, 0)\r\n\t\t}\r\n\t}\r\n}\r\n",
  "sourcePath": "C:/git/adex-protocol-eth/contracts/extra/Identity.sol",
  "compiler": {
    "name": "solc",
    "version": "0.5.6+commit.b259423e.Emscripten.clang"
  },
  "schemaVersion": "3.0.5",
  "updatedAt": "2019-03-25T16:38:06.025Z",
  "devdoc": {
    "methods": {}
  },
  "userdoc": {
    "methods": {}
  }
}