{
  "contractName": "Identity",
  "abi": [
    {
      "constant": true,
      "inputs": [
        {
          "name": "",
          "type": "bytes32"
        }
      ],
      "name": "routinePaidFees",
      "outputs": [
        {
          "name": "",
          "type": "bool"
        }
      ],
      "payable": false,
      "stateMutability": "view",
      "type": "function"
    },
    {
      "constant": true,
      "inputs": [],
      "name": "nonce",
      "outputs": [
        {
          "name": "",
          "type": "uint256"
        }
      ],
      "payable": false,
      "stateMutability": "view",
      "type": "function"
    },
    {
      "constant": true,
      "inputs": [
        {
          "name": "",
          "type": "address"
        }
      ],
      "name": "privileges",
      "outputs": [
        {
          "name": "",
          "type": "uint8"
        }
      ],
      "payable": false,
      "stateMutability": "view",
      "type": "function"
    },
    {
      "inputs": [
        {
          "name": "addr",
          "type": "address"
        },
        {
          "name": "privLevel",
          "type": "uint8"
        },
        {
          "name": "feeTokenAddr",
          "type": "address"
        },
        {
          "name": "feeBeneficiary",
          "type": "address"
        },
        {
          "name": "feeTokenAmount",
          "type": "uint256"
        }
      ],
      "payable": false,
      "stateMutability": "nonpayable",
      "type": "constructor"
    },
    {
      "anonymous": false,
      "inputs": [
        {
          "indexed": true,
          "name": "addr",
          "type": "address"
        },
        {
          "indexed": false,
          "name": "privLevel",
          "type": "uint8"
        }
      ],
      "name": "LogPrivilegeChanged",
      "type": "event"
    },
    {
      "constant": false,
      "inputs": [
        {
          "name": "addr",
          "type": "address"
        },
        {
          "name": "privLevel",
          "type": "uint8"
        }
      ],
      "name": "setAddrPrivilege",
      "outputs": [],
      "payable": false,
      "stateMutability": "nonpayable",
      "type": "function"
    },
    {
      "constant": false,
      "inputs": [
        {
          "components": [
            {
              "name": "identityContract",
              "type": "address"
            },
            {
              "name": "nonce",
              "type": "uint256"
            },
            {
              "name": "feeTokenAddr",
              "type": "address"
            },
            {
              "name": "feeTokenAmount",
              "type": "uint256"
            },
            {
              "name": "to",
              "type": "address"
            },
            {
              "name": "value",
              "type": "uint256"
            },
            {
              "name": "data",
              "type": "bytes"
            }
          ],
          "name": "txns",
          "type": "tuple[]"
        },
        {
          "name": "signatures",
          "type": "bytes32[3][]"
        }
      ],
      "name": "execute",
      "outputs": [],
      "payable": false,
      "stateMutability": "nonpayable",
      "type": "function"
    },
    {
      "constant": false,
      "inputs": [
        {
          "components": [
            {
              "name": "identityContract",
              "type": "address"
            },
            {
              "name": "relayer",
              "type": "address"
            },
            {
              "name": "outpace",
              "type": "address"
            },
            {
              "name": "validUntil",
              "type": "uint256"
            },
            {
              "name": "feeTokenAddr",
              "type": "address"
            },
            {
              "name": "feeTokenAmount",
              "type": "uint256"
            }
          ],
          "name": "auth",
          "type": "tuple"
        },
        {
          "name": "signature",
          "type": "bytes32[3]"
        },
        {
          "components": [
            {
              "name": "mode",
              "type": "uint256"
            },
            {
              "name": "data",
              "type": "bytes"
            }
          ],
          "name": "operations",
          "type": "tuple[]"
        }
      ],
      "name": "executeRoutines",
      "outputs": [],
      "payable": false,
      "stateMutability": "nonpayable",
      "type": "function"
    }
  ],
  "bytecode": "0x6080604052600073ffffffffffffffffffffffffffffffffffffffff1663ed66d85790507c0100000000000000000000000000000000000000000000000000000000026000806101000a81548163ffffffff02191690837c010000000000000000000000000000000000000000000000000000000090040217905550600073ffffffffffffffffffffffffffffffffffffffff1663ef3600be90507c010000000000000000000000000000000000000000000000000000000002600060046101000a81548163ffffffff02191690837c01000000000000000000000000000000000000000000000000000000009004021790555060006001553480156200010557600080fd5b5060405160a080620025ae833981018060405262000127919081019062000341565b83600260008773ffffffffffffffffffffffffffffffffffffffff1673ffffffffffffffffffffffffffffffffffffffff16815260200190815260200160002060006101000a81548160ff021916908360ff1602179055508473ffffffffffffffffffffffffffffffffffffffff167f9685487d203e6d23591605e642082a4c0b3e0b18fa34bafa9ee7ed77e135faac85604051620001c7919062000423565b60405180910390a26000811115620001fb57620001fa838383620002066401000000000262000fb7176401000000009004565b5b5050505050620004b6565b8273ffffffffffffffffffffffffffffffffffffffff1663a9059cbb83836040518363ffffffff167c01000000000000000000000000000000000000000000000000000000000281526004016200025f929190620003f6565b600060405180830381600087803b1580156200027a57600080fd5b505af11580156200028f573d6000803e3d6000fd5b50505050620002ac620002bd640100000000026401000000009004565b1515620002b857600080fd5b505050565b600080600090503d60008114620002dd5760208114620002e757620002f3565b60019150620002f3565b60206000803e60005191505b50600081141591505090565b60006200030d82516200048b565b905092915050565b60006200032382516200049f565b905092915050565b6000620003398251620004a9565b905092915050565b600080600080600060a086880312156200035a57600080fd5b60006200036a88828901620002ff565b95505060206200037d888289016200032b565b94505060406200039088828901620002ff565b9350506060620003a388828901620002ff565b9250506080620003b68882890162000315565b9150509295509295909350565b620003ce8162000440565b82525050565b620003df8162000474565b82525050565b620003f0816200047e565b82525050565b60006040820190506200040d6000830185620003c3565b6200041c6020830184620003d4565b9392505050565b60006020820190506200043a6000830184620003e5565b92915050565b60006200044d8262000454565b9050919050565b600073ffffffffffffffffffffffffffffffffffffffff82169050919050565b6000819050919050565b600060ff82169050919050565b6000620004988262000454565b9050919050565b6000819050919050565b600060ff82169050919050565b6120e880620004c66000396000f3fe608060405234801561001057600080fd5b506004361061007f576000357c01000000000000000000000000000000000000000000000000000000009004806346c3d52214610084578063951a02af146100a0578063a6e6b446146100bc578063affed0e0146100ec578063c066a5b11461010a578063e9c90ddc1461013a575b600080fd5b61009e6004803603610099919081019061169b565b610156565b005b6100ba60048036036100b591908101906116d7565b610270565b005b6100d660048036036100d19190810190611743565b6105cc565b6040516100e39190611c2c565b60405180910390f35b6100f46105ec565b6040516101019190611e02565b60405180910390f35b610124600480360361011f9190810190611623565b6105f2565b6040516101319190611e1d565b60405180910390f35b610154600480360361014f919081019061176c565b610612565b005b3073ffffffffffffffffffffffffffffffffffffffff163373ffffffffffffffffffffffffffffffffffffffff161415156101c6576040517f08c379a00000000000000000000000000000000000000000000000000000000081526004016101bd90611d47565b60405180910390fd5b80600260008473ffffffffffffffffffffffffffffffffffffffff1673ffffffffffffffffffffffffffffffffffffffff16815260200190815260200160002060006101000a81548160ff021916908360ff1602179055508173ffffffffffffffffffffffffffffffffffffffff167f9685487d203e6d23591605e642082a4c0b3e0b18fa34bafa9ee7ed77e135faac826040516102649190611e1d565b60405180910390a25050565b600082600081518110151561028157fe5b90602001906020020151604001519050600080905060008090505b84518110156105b0576102ad611096565b85828151811015156102bb57fe5b9060200190602002015190503073ffffffffffffffffffffffffffffffffffffffff16816000015173ffffffffffffffffffffffffffffffffffffffff1614151561033b576040517f08c379a000000000000000000000000000000000000000000000000000000000815260040161033290611c47565b60405180910390fd5b8373ffffffffffffffffffffffffffffffffffffffff16816040015173ffffffffffffffffffffffffffffffffffffffff161415156103af576040517f08c379a00000000000000000000000000000000000000000000000000000000081526004016103a690611dc7565b60405180910390fd5b60015481602001511415156103f9576040517f08c379a00000000000000000000000000000000000000000000000000000000081526004016103f090611c87565b60405180910390fd5b6000816000015182602001518360400151846060015185608001518660a001518760c001516040516020016104349796959493929190611bb6565b604051602081830303815290604052805190602001209050600061046f82888681518110151561046057fe5b90602001906020020151610c9a565b90506002600381111561047e57fe5b60ff16600260008373ffffffffffffffffffffffffffffffffffffffff1673ffffffffffffffffffffffffffffffffffffffff16815260200190815260200160002060009054906101000a900460ff1660ff1610151515610514576040517f08c379a000000000000000000000000000000000000000000000000000000000815260040161050b90611c67565b60405180910390fd5b61052960018054610f8190919063ffffffff16565b600181905550610546836060015186610f8190919063ffffffff16565b945061055f83608001518460a001518560c00151610f9f565b15156105a0576040517f08c379a000000000000000000000000000000000000000000000000000000000815260040161059790611da7565b60405180910390fd5b505050808060010191505061029c565b5060008111156105c6576105c5823383610fb7565b5b50505050565b60036020528060005260406000206000915054906101000a900460ff1681565b60015481565b60026020528060005260406000206000915054906101000a900460ff1681565b3073ffffffffffffffffffffffffffffffffffffffff16836000015173ffffffffffffffffffffffffffffffffffffffff16141515610686576040517f08c379a000000000000000000000000000000000000000000000000000000000815260040161067d90611d87565b60405180910390fd5b3373ffffffffffffffffffffffffffffffffffffffff16836020015173ffffffffffffffffffffffffffffffffffffffff161415156106fa576040517f08c379a00000000000000000000000000000000000000000000000000000000081526004016106f190611cc7565b60405180910390fd5b42836060015110151515610743576040517f08c379a000000000000000000000000000000000000000000000000000000000815260040161073a90611d27565b60405180910390fd5b6000836040516020016107569190611de7565b604051602081830303815290604052805190602001209050600061077a8285610c9a565b90506001600381111561078957fe5b60ff16600260008373ffffffffffffffffffffffffffffffffffffffff1673ffffffffffffffffffffffffffffffffffffffff16815260200190815260200160002060009054906101000a900460ff1660ff161015151561081f576040517f08c379a000000000000000000000000000000000000000000000000000000000815260040161081690611c67565b60405180910390fd5b60008090505b8351811015610c1b57610836611116565b848281518110151561084457fe5b90602001906020020151905060008160000151141561099957600061094f886040015160008060009054906101000a90047c010000000000000000000000000000000000000000000000000000000002856020015160405160200180837bffffffffffffffffffffffffffffffffffffffffffffffffffffffff19167bffffffffffffffffffffffffffffffffffffffffffffffffffffffff1916815260040182805190602001908083835b60208310151561091557805182526020820191506020810190506020830392506108f0565b6001836020036101000a03801982511681845116808217855250505050505090500192505050604051602081830303815290604052610f9f565b9050801515610993576040517f08c379a000000000000000000000000000000000000000000000000000000000815260040161098a90611ce7565b60405180910390fd5b50610c0d565b600181600001511415610ae2576000610a98886040015160008060049054906101000a90047c010000000000000000000000000000000000000000000000000000000002856020015160405160200180837bffffffffffffffffffffffffffffffffffffffffffffffffffffffff19167bffffffffffffffffffffffffffffffffffffffffffffffffffffffff1916815260040182805190602001908083835b602083101515610a5e5780518252602082019150602081019050602083039250610a39565b6001836020036101000a03801982511681845116808217855250505050505090500192505050604051602081830303815290604052610f9f565b9050801515610adc576040517f08c379a0000000000000000000000000000000000000000000000000000000008152600401610ad390611ca7565b60405180910390fd5b50610c0c565b600281600001511415610bc75760008060008360200151806020019051610b0c919081019061164c565b925092509250600380811115610b1e57fe5b60ff16600260008473ffffffffffffffffffffffffffffffffffffffff1673ffffffffffffffffffffffffffffffffffffffff16815260200190815260200160002060009054906101000a900460ff1660ff1610151515610bb4576040517f08c379a0000000000000000000000000000000000000000000000000000000008152600401610bab90611d67565b60405180910390fd5b610bbf838383610fb7565b505050610c0b565b60001515610c0a576040517f08c379a0000000000000000000000000000000000000000000000000000000008152600401610c0190611d07565b60405180910390fd5b5b5b5b508080600101915050610825565b506003600083815260200190815260200160002060009054906101000a900460ff16158015610c4e575060008560a00151115b15610c935760016003600084815260200190815260200160002060006101000a81548160ff021916908315150217905550610c928560800151338760a00151610fb7565b5b5050505050565b600080826000600381101515610cac57fe5b60200201516000602081101515610cbf57fe5b1a7f0100000000000000000000000000000000000000000000000000000000000000027f0100000000000000000000000000000000000000000000000000000000000000900460ff166004811115610d1357fe5b905060006004811115610d2257fe5b816004811115610d2e57fe5b1415610d3e576000915050610f7b565b6000836000600381101515610d4f57fe5b60200201516001602081101515610d6257fe5b1a7f0100000000000000000000000000000000000000000000000000000000000000027f01000000000000000000000000000000000000000000000000000000000000009004905060026004811115610db757fe5b826004811115610dc357fe5b1415610e1f578460405160200180807f19457468657265756d205369676e6564204d6573736167653a0a333200000000815250601c01828152602001915050604051602081830303815290604052805190602001209450610ee9565b60036004811115610e2c57fe5b826004811115610e3857fe5b1415610e94578460405160200180807f19457468657265756d205369676e6564204d6573736167653a0a200000000000815250601b01828152602001915050604051602081830303815290604052805190602001209450610ee8565b600480811115610ea057fe5b826004811115610eac57fe5b1415610ee757846040516020018080612046606991396069018281526020019150506040516020818303038152906040528051906020012094505b5b5b60018582866001600381101515610efc57fe5b6020020151876002600381101515610f1057fe5b602002015160405160008152602001604052604051808581526020018460ff1660ff1681526020018381526020018281526020019450505050506020604051602081039080840390855afa158015610f6c573d6000803e3d6000fd5b50505060206040510351925050505b92915050565b6000808284019050838110151515610f9557fe5b8091505092915050565b600080600083516020850186885af190509392505050565b8273ffffffffffffffffffffffffffffffffffffffff1663a9059cbb83836040518363ffffffff167c010000000000000000000000000000000000000000000000000000000002815260040161100e929190611b8d565b600060405180830381600087803b15801561102857600080fd5b505af115801561103c573d6000803e3d6000fd5b50505050611048611058565b151561105357600080fd5b505050565b600080600090503d60008114611075576020811461107e5761108a565b6001915061108a565b60206000803e60005191505b50600081141591505090565b60e060405190810160405280600073ffffffffffffffffffffffffffffffffffffffff16815260200160008152602001600073ffffffffffffffffffffffffffffffffffffffff16815260200160008152602001600073ffffffffffffffffffffffffffffffffffffffff16815260200160008152602001606081525090565b604080519081016040528060008152602001606081525090565b600061113c8235611fad565b905092915050565b60006111508251611fbf565b905092915050565b600082601f830112151561116b57600080fd5b813561117e61117982611e65565b611e38565b915081818352602084019350602081019050838560608402820111156111a357600080fd5b60005b838110156111d357816111b988826111dd565b8452602084019350606083019250506001810190506111a6565b5050505092915050565b600082601f83011215156111f057600080fd5b60036112036111fe82611e8d565b611e38565b9150818385602084028201111561121957600080fd5b60005b83811015611249578161122f88826113b5565b84526020840193506020830192505060018101905061121c565b5050505092915050565b600082601f830112151561126657600080fd5b600361127961127482611eaf565b611e38565b9150818385602084028201111561128f57600080fd5b60005b838110156112bf57816112a588826113b5565b845260208401935060208301925050600181019050611292565b5050505092915050565b600082601f83011215156112dc57600080fd5b81356112ef6112ea82611ed1565b611e38565b9150818183526020840193506020810190508360005b83811015611335578135860161131b88826114bb565b845260208401935060208301925050600181019050611305565b5050505092915050565b600082601f830112151561135257600080fd5b813561136561136082611ef9565b611e38565b9150818183526020840193506020810190508360005b838110156113ab5781358601611391888261151f565b84526020840193506020830192505060018101905061137b565b5050505092915050565b60006113c18235611fd1565b905092915050565b600082601f83011215156113dc57600080fd5b81356113ef6113ea82611f21565b611e38565b9150808252602083016020830185838301111561140b57600080fd5b611416838284611ff2565b50505092915050565b600060c0828403121561143157600080fd5b61143b60c0611e38565b9050600061144b84828501611130565b600083015250602061145f84828501611130565b602083015250604061147384828501611130565b6040830152506060611487848285016115e7565b606083015250608061149b84828501611130565b60808301525060a06114af848285016115e7565b60a08301525092915050565b6000604082840312156114cd57600080fd5b6114d76040611e38565b905060006114e7848285016115e7565b600083015250602082013567ffffffffffffffff81111561150757600080fd5b611513848285016113c9565b60208301525092915050565b600060e0828403121561153157600080fd5b61153b60e0611e38565b9050600061154b84828501611130565b600083015250602061155f848285016115e7565b602083015250604061157384828501611130565b6040830152506060611587848285016115e7565b606083015250608061159b84828501611130565b60808301525060a06115af848285016115e7565b60a08301525060c082013567ffffffffffffffff8111156115cf57600080fd5b6115db848285016113c9565b60c08301525092915050565b60006115f38235611fdb565b905092915050565b60006116078251611fdb565b905092915050565b600061161b8235611fe5565b905092915050565b60006020828403121561163557600080fd5b600061164384828501611130565b91505092915050565b60008060006060848603121561166157600080fd5b600061166f86828701611144565b935050602061168086828701611144565b9250506040611691868287016115fb565b9150509250925092565b600080604083850312156116ae57600080fd5b60006116bc85828601611130565b92505060206116cd8582860161160f565b9150509250929050565b600080604083850312156116ea57600080fd5b600083013567ffffffffffffffff81111561170457600080fd5b6117108582860161133f565b925050602083013567ffffffffffffffff81111561172d57600080fd5b61173985828601611158565b9150509250929050565b60006020828403121561175557600080fd5b6000611763848285016113b5565b91505092915050565b6000806000610140848603121561178257600080fd5b60006117908682870161141f565b93505060c06117a186828701611253565b92505061012084013567ffffffffffffffff8111156117bf57600080fd5b6117cb868287016112c9565b9150509250925092565b6117de81611f58565b82525050565b6117ed81611f6a565b82525050565b60006117fe82611f4d565b808452611812816020860160208601612001565b61181b81612034565b602085010191505092915050565b6000601c82527f5452414e53414354494f4e5f4e4f545f464f525f434f4e5452414354000000006020830152604082019050919050565b6000601682527f494e53554646494349454e545f50524956494c454745000000000000000000006020830152604082019050919050565b6000600b82527f57524f4e475f4e4f4e43450000000000000000000000000000000000000000006020830152604082019050919050565b6000601782527f57495448445241575f455850495245445f4641494c45440000000000000000006020830152604082019050919050565b6000601582527f4f4e4c595f52454c415945525f43414e5f43414c4c00000000000000000000006020830152604082019050919050565b6000600f82527f57495448445241575f4641494c454400000000000000000000000000000000006020830152604082019050919050565b6000600c82527f494e56414c49445f4d4f444500000000000000000000000000000000000000006020830152604082019050919050565b6000601582527f415554484f52495a4154494f4e5f4558504952454400000000000000000000006020830152604082019050919050565b6000601682527f4f4e4c595f4944454e544954595f43414e5f43414c4c000000000000000000006020830152604082019050919050565b6000601f82527f494e53554646494349454e545f50524956494c4547455f5749544844524157006020830152604082019050919050565b6000601e82527f415554484f52495a4154494f4e5f4e4f545f464f525f434f4e545241435400006020830152604082019050919050565b6000600b82527f43414c4c5f4641494c45440000000000000000000000000000000000000000006020830152604082019050919050565b6000601a82527f455845435554455f4e454544535f53494e474c455f544f4b454e0000000000006020830152604082019050919050565b60c082016000820151611b0a60008501826117d5565b506020820151611b1d60208501826117d5565b506040820151611b3060408501826117d5565b506060820151611b436060850182611b6f565b506080820151611b5660808501826117d5565b5060a0820151611b6960a0850182611b6f565b50505050565b611b7881611f96565b82525050565b611b8781611fa0565b82525050565b6000604082019050611ba260008301856117d5565b611baf6020830184611b6f565b9392505050565b600060e082019050611bcb600083018a6117d5565b611bd86020830189611b6f565b611be560408301886117d5565b611bf26060830187611b6f565b611bff60808301866117d5565b611c0c60a0830185611b6f565b81810360c0830152611c1e81846117f3565b905098975050505050505050565b6000602082019050611c4160008301846117e4565b92915050565b60006020820190508181036000830152611c6081611829565b9050919050565b60006020820190508181036000830152611c8081611860565b9050919050565b60006020820190508181036000830152611ca081611897565b9050919050565b60006020820190508181036000830152611cc0816118ce565b9050919050565b60006020820190508181036000830152611ce081611905565b9050919050565b60006020820190508181036000830152611d008161193c565b9050919050565b60006020820190508181036000830152611d2081611973565b9050919050565b60006020820190508181036000830152611d40816119aa565b9050919050565b60006020820190508181036000830152611d60816119e1565b9050919050565b60006020820190508181036000830152611d8081611a18565b9050919050565b60006020820190508181036000830152611da081611a4f565b9050919050565b60006020820190508181036000830152611dc081611a86565b9050919050565b60006020820190508181036000830152611de081611abd565b9050919050565b600060c082019050611dfc6000830184611af4565b92915050565b6000602082019050611e176000830184611b6f565b92915050565b6000602082019050611e326000830184611b7e565b92915050565b6000604051905081810181811067ffffffffffffffff82111715611e5b57600080fd5b8060405250919050565b600067ffffffffffffffff821115611e7c57600080fd5b602082029050602081019050919050565b600067ffffffffffffffff821115611ea457600080fd5b602082029050919050565b600067ffffffffffffffff821115611ec657600080fd5b602082029050919050565b600067ffffffffffffffff821115611ee857600080fd5b602082029050602081019050919050565b600067ffffffffffffffff821115611f1057600080fd5b602082029050602081019050919050565b600067ffffffffffffffff821115611f3857600080fd5b601f19601f8301169050602081019050919050565b600081519050919050565b6000611f6382611f76565b9050919050565b60008115159050919050565b600073ffffffffffffffffffffffffffffffffffffffff82169050919050565b6000819050919050565b600060ff82169050919050565b6000611fb882611f76565b9050919050565b6000611fca82611f76565b9050919050565b6000819050919050565b6000819050919050565b600060ff82169050919050565b82818337600083830152505050565b60005b8381101561201f578082015181840152602081019050612004565b8381111561202e576000848401525b50505050565b6000601f19601f830116905091905056fe19457468657265756d205369676e6564204d6573736167653a0a3130384279207369676e696e672074686973206d6573736167652c20796f752061636b6e6f776c65646765207369676e696e6720616e20416445782062696420776974682074686520686173683a0aa265627a7a72305820f9ade78c0f243f65eb6e0f86debdf7381eadede577aad7fbf910bcceef1b208c6c6578706572696d656e74616cf50037",
  "source": "pragma solidity ^0.5.2;\npragma experimental ABIEncoderV2;\n\nimport \"../libs/SafeMath.sol\";\nimport \"../libs/SafeERC20.sol\";\nimport \"../libs/SignatureValidator.sol\";\nimport \"../AdExCore.sol\";\n\ncontract Identity {\n\tusing SafeMath for uint;\n\n\t// Constants\n\tbytes4 private CHANNEL_WITHDRAW_SELECTOR = AdExCore(0x0).channelWithdraw.selector;\n\tbytes4 private CHANNEL_WITHDRAW_EXPIRED_SELECTOR = AdExCore(0x0).channelWithdrawExpired.selector;\n\n\t// The next allowed nonce\n\tuint public nonce = 0;\n\tmapping (address => uint8) public privileges;\n\t// Routine operations are authorized at once for a period, fee is paid once\n\tmapping (bytes32 => bool) public routinePaidFees;\n\n\tenum PrivilegeLevel {\n\t\tNone,\n\t\tRoutines,\n\t\tTransactions,\n\t\tWithdraw\n\t}\n\n\t// Events\n\tevent LogPrivilegeChanged(address indexed addr, uint8 privLevel);\n\n\t// Transaction structure\n\t// Those can be executed by keys with >= PrivilegeLevel.Transactions\n\t// Even though the contract cannot receive ETH, we are able to send ETH (.value), cause ETH might've been sent to the contract address before it's deployed\n\tstruct Transaction {\n\t\t// replay protection\n\t\taddress identityContract;\n\t\tuint nonce;\n\t\t// tx fee, in tokens\n\t\taddress feeTokenAddr;\n\t\tuint feeTokenAmount;\n\t\t// all the regular txn data\n\t\taddress to;\n\t\tuint value;\n\t\tbytes data;\n\t}\n\n\t// RoutineAuthorizations allow the user to authorize (via keys >= PrivilegeLevel.Routines) a particular relayer to do any number of routines\n\t// those routines are safe: e.g. withdrawing channels to the identity, or from the identity to the pre-approved withdraw (>= PrivilegeLevel.Withdraw) address\n\t// while the fee will be paid only ONCE per auth, the authorization can be used until validUntil\n\t// while the routines are safe, there is some level of implied trust as the relayer may run executeRoutines without any routines to claim the fee\n\tstruct RoutineAuthorization {\n\t\taddress identityContract;\n\t\taddress relayer;\n\t\taddress outpace;\n\t\tuint validUntil;\n\t\taddress feeTokenAddr;\n\t\tuint feeTokenAmount;\n\t}\n\tstruct RoutineOperation {\n\t\tuint mode;\n\t\tbytes data;\n\t}\n\n\tconstructor(address addr, uint8 privLevel, address feeTokenAddr, address feeBeneficiary, uint feeTokenAmount)\n\t\tpublic\n\t{\n\t\tprivileges[addr] = privLevel;\n\t\temit LogPrivilegeChanged(addr, privLevel);\n\t\tif (feeTokenAmount > 0) {\n\t\t\tSafeERC20.transfer(feeTokenAddr, feeBeneficiary, feeTokenAmount);\n\t\t}\n\t}\n\n\tfunction setAddrPrivilege(address addr, uint8 privLevel)\n\t\texternal\n\t{\n\t\trequire(msg.sender == address(this), 'ONLY_IDENTITY_CAN_CALL');\n\t\t// @TODO: should we have on-chain anti-bricking guarantees? maybe there's an easy way to do this\n\t\t// since this can only be invoked by PrivilegeLevels.Transaction, maybe if we make sure we can't invoke setAddrPrivilege(addr, level) where addr == signer, it may be sufficient\n\t\tprivileges[addr] = privLevel;\n\t\temit LogPrivilegeChanged(addr, privLevel);\n\t}\n\n\tfunction execute(Transaction[] memory txns, bytes32[3][] memory signatures)\n\t\tpublic\n\t{\n\t\taddress feeTokenAddr = txns[0].feeTokenAddr;\n\t\tuint feeTokenAmount = 0;\n\t\tfor (uint i=0; i<txns.length; i++) {\n\t\t\tTransaction memory txn = txns[i];\n\t\t\trequire(txn.identityContract == address(this), 'TRANSACTION_NOT_FOR_CONTRACT');\n\t\t\trequire(txn.feeTokenAddr == feeTokenAddr, 'EXECUTE_NEEDS_SINGLE_TOKEN');\n\t\t\trequire(txn.nonce == nonce, 'WRONG_NONCE');\n\t\t\t// If we use the naive abi.encode(txn) and have a field of type `bytes`,\n\t\t\t// there is a discrepancy between ethereumjs-abi and solidity\n\t\t\t// if we enter every field individually, in order, there is no discrepancy\n\t\t\t//bytes32 hash = keccak256(abi.encode(txn));\n\t\t\tbytes32 hash = keccak256(abi.encode(txn.identityContract, txn.nonce, txn.feeTokenAddr, txn.feeTokenAmount, txn.to, txn.value, txn.data));\n\t\t\taddress signer = SignatureValidator.recoverAddr(hash, signatures[i]);\n\n\t\t\trequire(privileges[signer] >= uint8(PrivilegeLevel.Transactions), 'INSUFFICIENT_PRIVILEGE');\n\n\t\t\tnonce = nonce.add(1);\n\t\t\tfeeTokenAmount = feeTokenAmount.add(txn.feeTokenAmount);\n\n\t\t\trequire(executeCall(txn.to, txn.value, txn.data), 'CALL_FAILED');\n\t\t}\n\t\tif (feeTokenAmount > 0) {\n\t\t\tSafeERC20.transfer(feeTokenAddr, msg.sender, feeTokenAmount);\n\t\t}\n\t}\n\n\tfunction executeRoutines(RoutineAuthorization memory auth, bytes32[3] memory signature, RoutineOperation[] memory operations)\n\t\tpublic\n\t{\n\t\trequire(auth.identityContract == address(this), 'AUTHORIZATION_NOT_FOR_CONTRACT');\n\t\trequire(auth.relayer == msg.sender, 'ONLY_RELAYER_CAN_CALL');\n\t\trequire(auth.validUntil >= now, 'AUTHORIZATION_EXPIRED');\n\t\tbytes32 hash = keccak256(abi.encode(auth));\n\t\taddress signer = SignatureValidator.recoverAddr(hash, signature);\n\t\trequire(privileges[signer] >= uint8(PrivilegeLevel.Routines), 'INSUFFICIENT_PRIVILEGE');\n\t\tfor (uint i=0; i<operations.length; i++) {\n\t\t\tRoutineOperation memory op = operations[i];\n\t\t\t// @TODO: is it possible to preserve original error from the call\n\t\t\tif (op.mode == 0) {\n\t\t\t\t// Channel: Withdraw\n\t\t\t\tbool success = executeCall(auth.outpace, 0, abi.encodePacked(CHANNEL_WITHDRAW_SELECTOR, op.data));\n\t\t\t\trequire(success, 'WITHDRAW_FAILED');\n\t\t\t} else if (op.mode == 1) {\n\t\t\t\t// Channel: Withdraw Expired\n\t\t\t\tbool success = executeCall(auth.outpace, 0, abi.encodePacked(CHANNEL_WITHDRAW_EXPIRED_SELECTOR, op.data));\n\t\t\t\trequire(success, 'WITHDRAW_EXPIRED_FAILED');\n\t\t\t} else if (op.mode == 2) {\n\t\t\t\t// Withdraw from identity\n\t\t\t\t(address tokenAddr, address to, uint amount) = abi.decode(op.data, (address, address, uint));\n\t\t\t\trequire(privileges[to] >= uint8(PrivilegeLevel.Withdraw), 'INSUFFICIENT_PRIVILEGE_WITHDRAW');\n\t\t\t\tSafeERC20.transfer(tokenAddr, to, amount);\n\t\t\t} else {\n\t\t\t\trequire(false, 'INVALID_MODE');\n\t\t\t}\n\t\t}\n\t\tif (!routinePaidFees[hash] && auth.feeTokenAmount > 0) {\n\t\t\troutinePaidFees[hash] = true;\n\t\t\tSafeERC20.transfer(auth.feeTokenAddr, msg.sender, auth.feeTokenAmount);\n\t\t}\n\t}\n\n\t// we shouldn't use address.call(), cause: https://github.com/ethereum/solidity/issues/2884\n\t// copied from https://github.com/uport-project/uport-identity/blob/develop/contracts/Proxy.sol\n\t// there's also\n\t// https://github.com/gnosis/MultiSigWallet/commit/e1b25e8632ca28e9e9e09c81bd20bf33fdb405ce\n\t// https://github.com/austintgriffith/bouncer-proxy/blob/master/BouncerProxy/BouncerProxy.sol\n\t// https://github.com/gnosis/safe-contracts/blob/7e2eeb3328bb2ae85c36bc11ea6afc14baeb663c/contracts/base/Executor.sol\n\tfunction executeCall(address to, uint256 value, bytes memory data)\n\t\tinternal\n\t\treturns (bool success)\n\t{\n\t\tassembly {\n\t\t\tsuccess := call(gas, to, value, add(data, 0x20), mload(data), 0, 0)\n\t\t}\n\t}\n}\n",
  "sourcePath": "/home/paunov/git/adex-protocol-eth/contracts/extra/Identity.sol",
  "compiler": {
    "name": "solc",
    "version": "0.5.2+commit.1df8f40c.Emscripten.clang"
  },
  "schemaVersion": "3.0.1",
  "updatedAt": "2019-01-04T14:04:06.248Z",
  "devdoc": {
    "methods": {}
  },
  "userdoc": {
    "methods": {}
  }
}